{
  "contractName": "JupyterCoreV1",
  "abi": [
    {
      "inputs": [
        {
          "internalType": "address",
          "name": "_token0",
          "type": "address"
        },
        {
          "internalType": "address",
          "name": "_token1",
          "type": "address"
        },
        {
          "internalType": "address",
          "name": "_protocolAddress",
          "type": "address"
        }
      ],
      "stateMutability": "nonpayable",
      "type": "constructor"
    },
    {
      "anonymous": false,
      "inputs": [
        {
          "indexed": true,
          "internalType": "address",
          "name": "owner",
          "type": "address"
        },
        {
          "indexed": true,
          "internalType": "address",
          "name": "spender",
          "type": "address"
        },
        {
          "indexed": false,
          "internalType": "uint256",
          "name": "value",
          "type": "uint256"
        }
      ],
      "name": "Approval",
      "type": "event"
    },
    {
      "anonymous": false,
      "inputs": [
        {
          "indexed": false,
          "internalType": "address",
          "name": "poolAddress",
          "type": "address"
        },
        {
          "indexed": false,
          "internalType": "address",
          "name": "tokenAddress",
          "type": "address"
        }
      ],
      "name": "PoolClosed",
      "type": "event"
    },
    {
      "anonymous": false,
      "inputs": [
        {
          "indexed": true,
          "internalType": "address",
          "name": "from",
          "type": "address"
        },
        {
          "indexed": true,
          "internalType": "address",
          "name": "to",
          "type": "address"
        },
        {
          "indexed": false,
          "internalType": "uint256",
          "name": "value",
          "type": "uint256"
        }
      ],
      "name": "Transfer",
      "type": "event"
    },
    {
      "inputs": [
        {
          "internalType": "address",
          "name": "owner",
          "type": "address"
        },
        {
          "internalType": "address",
          "name": "spender",
          "type": "address"
        }
      ],
      "name": "allowance",
      "outputs": [
        {
          "internalType": "uint256",
          "name": "",
          "type": "uint256"
        }
      ],
      "stateMutability": "view",
      "type": "function",
      "constant": true
    },
    {
      "inputs": [
        {
          "internalType": "address",
          "name": "spender",
          "type": "address"
        },
        {
          "internalType": "uint256",
          "name": "amount",
          "type": "uint256"
        }
      ],
      "name": "approve",
      "outputs": [
        {
          "internalType": "bool",
          "name": "",
          "type": "bool"
        }
      ],
      "stateMutability": "nonpayable",
      "type": "function"
    },
    {
      "inputs": [
        {
          "internalType": "address",
          "name": "account",
          "type": "address"
        }
      ],
      "name": "balanceOf",
      "outputs": [
        {
          "internalType": "uint256",
          "name": "",
          "type": "uint256"
        }
      ],
      "stateMutability": "view",
      "type": "function",
      "constant": true
    },
    {
      "inputs": [],
      "name": "decimals",
      "outputs": [
        {
          "internalType": "uint8",
          "name": "",
          "type": "uint8"
        }
      ],
      "stateMutability": "view",
      "type": "function",
      "constant": true
    },
    {
      "inputs": [
        {
          "internalType": "address",
          "name": "spender",
          "type": "address"
        },
        {
          "internalType": "uint256",
          "name": "subtractedValue",
          "type": "uint256"
        }
      ],
      "name": "decreaseAllowance",
      "outputs": [
        {
          "internalType": "bool",
          "name": "",
          "type": "bool"
        }
      ],
      "stateMutability": "nonpayable",
      "type": "function"
    },
    {
      "inputs": [
        {
          "internalType": "address",
          "name": "spender",
          "type": "address"
        },
        {
          "internalType": "uint256",
          "name": "addedValue",
          "type": "uint256"
        }
      ],
      "name": "increaseAllowance",
      "outputs": [
        {
          "internalType": "bool",
          "name": "",
          "type": "bool"
        }
      ],
      "stateMutability": "nonpayable",
      "type": "function"
    },
    {
      "inputs": [],
      "name": "name",
      "outputs": [
        {
          "internalType": "string",
          "name": "",
          "type": "string"
        }
      ],
      "stateMutability": "view",
      "type": "function",
      "constant": true
    },
    {
      "inputs": [],
      "name": "symbol",
      "outputs": [
        {
          "internalType": "string",
          "name": "",
          "type": "string"
        }
      ],
      "stateMutability": "view",
      "type": "function",
      "constant": true
    },
    {
      "inputs": [],
      "name": "token0",
      "outputs": [
        {
          "internalType": "contract IERC20",
          "name": "",
          "type": "address"
        }
      ],
      "stateMutability": "view",
      "type": "function",
      "constant": true
    },
    {
      "inputs": [],
      "name": "token0Balance",
      "outputs": [
        {
          "internalType": "uint256",
          "name": "",
          "type": "uint256"
        }
      ],
      "stateMutability": "view",
      "type": "function",
      "constant": true
    },
    {
      "inputs": [],
      "name": "token1",
      "outputs": [
        {
          "internalType": "contract IERC20",
          "name": "",
          "type": "address"
        }
      ],
      "stateMutability": "view",
      "type": "function",
      "constant": true
    },
    {
      "inputs": [],
      "name": "token1Balance",
      "outputs": [
        {
          "internalType": "uint256",
          "name": "",
          "type": "uint256"
        }
      ],
      "stateMutability": "view",
      "type": "function",
      "constant": true
    },
    {
      "inputs": [],
      "name": "totalSupply",
      "outputs": [
        {
          "internalType": "uint256",
          "name": "",
          "type": "uint256"
        }
      ],
      "stateMutability": "view",
      "type": "function",
      "constant": true
    },
    {
      "inputs": [
        {
          "internalType": "address",
          "name": "to",
          "type": "address"
        },
        {
          "internalType": "uint256",
          "name": "amount",
          "type": "uint256"
        }
      ],
      "name": "transfer",
      "outputs": [
        {
          "internalType": "bool",
          "name": "",
          "type": "bool"
        }
      ],
      "stateMutability": "nonpayable",
      "type": "function"
    },
    {
      "inputs": [
        {
          "internalType": "address",
          "name": "from",
          "type": "address"
        },
        {
          "internalType": "address",
          "name": "to",
          "type": "address"
        },
        {
          "internalType": "uint256",
          "name": "amount",
          "type": "uint256"
        }
      ],
      "name": "transferFrom",
      "outputs": [
        {
          "internalType": "bool",
          "name": "",
          "type": "bool"
        }
      ],
      "stateMutability": "nonpayable",
      "type": "function"
    },
    {
      "inputs": [
        {
          "internalType": "uint256",
          "name": "_token0Amount",
          "type": "uint256"
        },
        {
          "internalType": "uint256",
          "name": "_token1Amount",
          "type": "uint256"
        },
        {
          "internalType": "address",
          "name": "from",
          "type": "address"
        }
      ],
      "name": "initialDeposit",
      "outputs": [],
      "stateMutability": "nonpayable",
      "type": "function"
    },
    {
      "inputs": [
        {
          "internalType": "uint256",
          "name": "_token0Amount",
          "type": "uint256"
        },
        {
          "internalType": "uint256",
          "name": "_token1Amount",
          "type": "uint256"
        },
        {
          "internalType": "address",
          "name": "from",
          "type": "address"
        }
      ],
      "name": "deposit",
      "outputs": [],
      "stateMutability": "nonpayable",
      "type": "function"
    },
    {
      "inputs": [
        {
          "internalType": "address",
          "name": "from",
          "type": "address"
        },
        {
          "internalType": "uint256",
          "name": "_withdrawalAmount",
          "type": "uint256"
        }
      ],
      "name": "withdraw",
      "outputs": [
        {
          "internalType": "uint256",
          "name": "",
          "type": "uint256"
        }
      ],
      "stateMutability": "nonpayable",
      "type": "function"
    },
    {
      "inputs": [
        {
          "internalType": "uint256",
          "name": "_token0Amount",
          "type": "uint256"
        },
        {
          "internalType": "uint256",
          "name": "_token1AmountMin",
          "type": "uint256"
        },
        {
          "internalType": "address",
          "name": "from",
          "type": "address"
        }
      ],
      "name": "swapToken0ToToken1",
      "outputs": [
        {
          "internalType": "uint256",
          "name": "",
          "type": "uint256"
        }
      ],
      "stateMutability": "nonpayable",
      "type": "function"
    },
    {
      "inputs": [
        {
          "internalType": "uint256",
          "name": "_token1Amount",
          "type": "uint256"
        },
        {
          "internalType": "uint256",
          "name": "_token0AmountMin",
          "type": "uint256"
        },
        {
          "internalType": "address",
          "name": "from",
          "type": "address"
        }
      ],
      "name": "swapToken1ToToken0",
      "outputs": [
        {
          "internalType": "uint256",
          "name": "",
          "type": "uint256"
        }
      ],
      "stateMutability": "nonpayable",
      "type": "function"
    },
    {
      "inputs": [
        {
          "internalType": "uint256",
          "name": "tokenAmount",
          "type": "uint256"
        }
      ],
      "name": "getToken1AmountFromToken0Amount",
      "outputs": [
        {
          "internalType": "uint256",
          "name": "",
          "type": "uint256"
        }
      ],
      "stateMutability": "view",
      "type": "function",
      "constant": true
    },
    {
      "inputs": [
        {
          "internalType": "uint256",
          "name": "tokenAmount",
          "type": "uint256"
        }
      ],
      "name": "getToken0AmountFromToken1Amount",
      "outputs": [
        {
          "internalType": "uint256",
          "name": "",
          "type": "uint256"
        }
      ],
      "stateMutability": "view",
      "type": "function",
      "constant": true
    },
    {
      "inputs": [],
      "name": "rate",
      "outputs": [
        {
          "internalType": "uint256",
          "name": "",
          "type": "uint256"
        }
      ],
      "stateMutability": "view",
      "type": "function",
      "constant": true
    },
    {
      "inputs": [
        {
          "internalType": "address",
          "name": "from",
          "type": "address"
        }
      ],
      "name": "getBalances",
      "outputs": [
        {
          "internalType": "uint256",
          "name": "",
          "type": "uint256"
        },
        {
          "internalType": "uint256",
          "name": "",
          "type": "uint256"
        }
      ],
      "stateMutability": "view",
      "type": "function",
      "constant": true
    }
  ],
  "bytecode": "0x60806040526008805460a060020a60ff02191690553480156200002157600080fd5b506040516200201438038062002014833981016040819052620000449162000290565b604080518082018252600581527f4a502d4c5000000000000000000000000000000000000000000000000000000060208083019182528351808501909452601184527f4a757079746572204c6971756964697479000000000000000000000000000000908401528151919291620000be91600391620001cd565b508051620000d4906004906020840190620001cd565b505060058054600160a060020a0319163317905550600160a060020a038316158015906200010a5750600160a060020a03821615155b80156200011f5750600160a060020a03811615155b6200018a576040517f08c379a000000000000000000000000000000000000000000000000000000000815260206004820152601860248201527f5a65726f2061646472657373206e6f7420616c6c6f7765640000000000000000604482015260640160405180910390fd5b60098054600160a060020a03948516600160a060020a031991821617909155600a8054938516938216939093179092556008805491909316911617905562000330565b828054620001db90620002da565b90600052602060002090601f016020900481019282620001ff57600085556200024a565b82601f106200021a57805160ff19168380011785556200024a565b828001600101855582156200024a579182015b828111156200024a5782518255916020019190600101906200022d565b50620002589291506200025c565b5090565b5b808211156200025857600081556001016200025d565b8051600160a060020a03811681146200028b57600080fd5b919050565b600080600060608486031215620002a657600080fd5b620002b18462000273565b9250620002c16020850162000273565b9150620002d16040850162000273565b90509250925092565b600281046001821680620002ef57607f821691505b602082108114156200032a577f4e487b7100000000000000000000000000000000000000000000000000000000600052602260045260246000fd5b50919050565b611cd480620003406000396000f3fe608060405234801561001057600080fd5b5060043610610175576000357c010000000000000000000000000000000000000000000000000000000090048063755f292f116100e0578063a9059cbb11610099578063a9059cbb146102f6578063b9ffa6a814610309578063c84aae1714610312578063d21220a71461033a578063dd62ed3e1461034d578063f3fef3a31461038657600080fd5b8063755f292f1461028d5780638dbdbe6d146102a0578063909665aa146102b557806395d89b41146102c857806399c91cd0146102d0578063a457c2d7146102e357600080fd5b80632c4e722e116101325780632c4e722e1461021e578063313ce56714610226578063395093511461023557806361683f0f1461024857806363fcefda1461025b57806370a082311461026457600080fd5b806306fdde031461017a578063095ea7b3146101985780630dfe1681146101bb57806318160ddd146101e6578063203668e0146101f857806323b872dd1461020b575b600080fd5b610182610399565b60405161018f9190611a76565b60405180910390f35b6101ab6101a63660046119c0565b61042b565b604051901515815260200161018f565b6009546101ce90600160a060020a031681565b604051600160a060020a03909116815260200161018f565b6002545b60405190815260200161018f565b6101ea610206366004611a25565b610443565b6101ab610219366004611984565b61055a565b6101ea610580565b6040516024815260200161018f565b6101ab6102433660046119c0565b6105cd565b6101ea610256366004611a0c565b61060c565b6101ea60065481565b6101ea610272366004611936565b600160a060020a031660009081526020819052604090205490565b6101ea61029b366004611a0c565b610671565b6102b36102ae366004611a25565b6106bf565b005b6102b36102c3366004611a25565b610855565b6101826109b3565b6101ea6102de366004611a25565b6109c2565b6101ab6102f13660046119c0565b610acd565b6101ab6103043660046119c0565b610b85565b6101ea60075481565b610325610320366004611936565b610b93565b6040805192835260208301919091520161018f565b600a546101ce90600160a060020a031681565b6101ea61035b366004611951565b600160a060020a03918216600090815260016020908152604080832093909416825291909152205490565b6101ea6103943660046119c0565b610c28565b6060600380546103a890611c1b565b80601f01602080910402602001604051908101604052809291908181526020018280546103d490611c1b565b80156104215780601f106103f657610100808354040283529160200191610421565b820191906000526020600020905b81548152906001019060200180831161040457829003601f168201915b5050505050905090565b600033610439818585610ddc565b5060019392505050565b600554600090600160a060020a0316331461047c5760405160e560020a62461bcd02815260040161047390611ae0565b60405180910390fd5b83620186a081116104a25760405160e560020a62461bcd02815260040161047390611aa9565b60006104ad86610671565b9050848110156105025760405160e560020a62461bcd02815260206004820152600d60248201527f5072696365206368616e676564000000000000000000000000000000000000006044820152606401610473565b80600760008282546105149190611baf565b90915550610523905081610f3a565b60095461053a90600160a060020a03168786610f96565b600a5461055190600160a060020a03168583611052565b95945050505050565b6000336105688582856110d2565b610573858585611167565b60019150505b9392505050565b600554600090600160a060020a031633146105b05760405160e560020a62461bcd02815260040161047390611ae0565b6007546105be600654611387565b6105c89190611b55565b905090565b336000818152600160209081526040808320600160a060020a03871684529091528120549091906104399082908690610607908790611b3d565b610ddc565b600554600090600160a060020a0316331461063c5760405160e560020a62461bcd02815260040161047390611ae0565b6106698260075461064d9190611b3d565b60065461065a9085611b90565b6106649190611b55565b61139b565b90505b919050565b600554600090600160a060020a031633146106a15760405160e560020a62461bcd02815260040161047390611ae0565b610669826006546106b29190611b3d565b60075461065a9085611b90565b600554600160a060020a031633146106ec5760405160e560020a62461bcd02815260040161047390611ae0565b82620186a081116107125760405160e560020a62461bcd02815260040161047390611aa9565b82620186a081116107385760405160e560020a62461bcd02815260040161047390611aa9565b610740610580565b61075461074f876103e8611b3d565b611387565b61075e9190611b55565b841115801561078d5750610770610580565b61077f61074f6103e888611baf565b6107899190611b55565b8410155b6107dc5760405160e560020a62461bcd02815260206004820152601b60248201527f57726f6e6720616d6f756e74206f6620746f6b656e732073656e7400000000006044820152606401610473565b610806600754866107ec60025490565b6107f69190611b90565b6108009190611b55565b846113d5565b600a5461083790600160a060020a031661081e610580565b61082788611387565b6108319190611b55565b85610f96565b60095461084e90600160a060020a03168685610f96565b5050505050565b600554600160a060020a031633146108825760405160e560020a62461bcd02815260040161047390611ae0565b82620186a081116108a85760405160e560020a62461bcd02815260040161047390611aa9565b82620186a081116108ce5760405160e560020a62461bcd02815260040161047390611aa9565b60085474010000000000000000000000000000000000000000900460ff161561093c5760405160e560020a62461bcd02815260206004820152601a60248201527f616c726561647920646f6e6520757365206465706f73697428290000000000006044820152606401610473565b6109496108008587611b90565b6008805474ff000000000000000000000000000000000000000019167401000000000000000000000000000000000000000017905560095460055461099c91600160a060020a0390811691889116610f96565b600a5461084e90600160a060020a03168585610f96565b6060600480546103a890611c1b565b600554600090600160a060020a031633146109f25760405160e560020a62461bcd02815260040161047390611ae0565b83620186a08111610a185760405160e560020a62461bcd02815260040161047390611aa9565b6000610a238661060c565b905084811015610a785760405160e560020a62461bcd02815260206004820152600d60248201527f5072696365206368616e676564000000000000000000000000000000000000006044820152606401610473565b8060066000828254610a8a9190611baf565b90915550610a999050816113df565b600a54610ab090600160a060020a03168786610f96565b60055460095461055191600160a060020a03918216911683611052565b336000818152600160209081526040808320600160a060020a038716845290915281205490919083811015610b6d5760405160e560020a62461bcd02815260206004820152602560248201527f45524332303a2064656372656173656420616c6c6f77616e63652062656c6f7760448201527f207a65726f0000000000000000000000000000000000000000000000000000006064820152608401610473565b610b7a8286868403610ddc565b506001949350505050565b600033610439818585611167565b6005546000908190600160a060020a03163314610bc55760405160e560020a62461bcd02815260040161047390611ae0565b600160a060020a0383166000908152602081905260408120549050600081610bec60025490565b610bf69190611b55565b9050600081600654610c089190611b55565b9050600082600754610c1a9190611b55565b919550909350505050915091565b600554600090600160a060020a03163314610c585760405160e560020a62461bcd02815260040161047390611ae0565b600160a060020a03831660009081526020819052604090205482811015610cc45760405160e560020a62461bcd02815260206004820152600f60248201527f42616c616e636520746f6f206c6f7700000000000000000000000000000000006044820152606401610473565b600083610cd060025490565b610cda9190611b55565b9050600081600654610cec9190611b55565b9050600082600754610cfe9190611b55565b9050610d0a868861140a565b8160066000828254610d1c9190611baf565b925050819055508060076000828254610d359190611baf565b9091555050600554600954610d5791600160a060020a03918216911684611052565b600a54610d6e90600160a060020a03168883611052565b612710610d7a60025490565b11610dd257600a5460408051308152600160a060020a0390921660208301527f94ee37f3f4c2854bd35577a7c94974a8ddcb9c09c50628e4b9f658863d3caa87910160405180910390a1600854600160a060020a0316ff5b5095945050505050565b600160a060020a038316610e5a5760405160e560020a62461bcd028152602060048201526024808201527f45524332303a20617070726f76652066726f6d20746865207a65726f2061646460448201527f72657373000000000000000000000000000000000000000000000000000000006064820152608401610473565b600160a060020a038216610ed95760405160e560020a62461bcd02815260206004820152602260248201527f45524332303a20617070726f766520746f20746865207a65726f20616464726560448201527f73730000000000000000000000000000000000000000000000000000000000006064820152608401610473565b600160a060020a0383811660008181526001602090815260408083209487168084529482529182902085905590518481527f8c5be1e5ebec7d5bd14f71427d1e84f3dd0314c0f7b2291e5b200ac8c7c3b925910160405180910390a3505050565b6000610f55610f50660110d9316ec00084611b90565b611414565b9050610f92816006546002610f6a9190611b90565b600254610f779190611b55565b610f819190611b90565b600854600160a060020a03166113d5565b5050565b620186a0821015610fec5760405160e560020a62461bcd02815260206004820152601360248201527f53656e7420616d6f756e7420746f6f206c6f77000000000000000000000000006044820152606401610473565b600954600160a060020a038481169116141561101f5781600660008282546110149190611b3d565b9091555061104d9050565b600a54600160a060020a038481169116141561104d5781600760008282546110479190611b3d565b90915550505b505050565b60408051600160a060020a038416602482015260448082018490528251808303909101815260649091019091526020810180517bffffffffffffffffffffffffffffffffffffffffffffffffffffffff167fa9059cbb0000000000000000000000000000000000000000000000000000000017905261104d908490611428565b600160a060020a03838116600090815260016020908152604080832093861683529290522054600019811461116157818110156111545760405160e560020a62461bcd02815260206004820152601d60248201527f45524332303a20696e73756666696369656e7420616c6c6f77616e63650000006044820152606401610473565b6111618484848403610ddc565b50505050565b600160a060020a0383166111e65760405160e560020a62461bcd02815260206004820152602560248201527f45524332303a207472616e736665722066726f6d20746865207a65726f20616460448201527f64726573730000000000000000000000000000000000000000000000000000006064820152608401610473565b600160a060020a0382166112655760405160e560020a62461bcd02815260206004820152602360248201527f45524332303a207472616e7366657220746f20746865207a65726f206164647260448201527f65737300000000000000000000000000000000000000000000000000000000006064820152608401610473565b600160a060020a038316600090815260208190526040902054818110156112f75760405160e560020a62461bcd02815260206004820152602660248201527f45524332303a207472616e7366657220616d6f756e742065786365656473206260448201527f616c616e636500000000000000000000000000000000000000000000000000006064820152608401610473565b600160a060020a0380851660009081526020819052604080822085850390559185168152908120805484929061132e908490611b3d565b9250508190555082600160a060020a031684600160a060020a03167fddf252ad1be2c89b69c2b068fc378daa952ba7f163c4a11628f55a4df523b3ef8460405161137a91815260200190565b60405180910390a3611161565b6000610669670de0b6b3a764000083611b90565b6000670de0b6b3a76400006113b7660aa87bee53800082611bc6565b6113cb9067ffffffffffffffff1684611b90565b6106699190611b55565b610f928183611510565b60006113f5610f50660110d9316ec00084611b90565b9050610f92816007546002610f6a9190611b90565b610f9281836115f2565b6000610669670de0b6b3a764000083611b55565b600061147d826040518060400160405280602081526020017f5361666545524332303a206c6f772d6c6576656c2063616c6c206661696c656481525085600160a060020a031661177d9092919063ffffffff16565b80519091501561104d578080602001905181019061149b91906119ea565b61104d5760405160e560020a62461bcd02815260206004820152602a60248201527f5361666545524332303a204552433230206f7065726174696f6e20646964206e60448201527f6f742073756363656564000000000000000000000000000000000000000000006064820152608401610473565b600160a060020a0382166115695760405160e560020a62461bcd02815260206004820152601f60248201527f45524332303a206d696e7420746f20746865207a65726f2061646472657373006044820152606401610473565b806002600082825461157b9190611b3d565b9091555050600160a060020a038216600090815260208190526040812080548392906115a8908490611b3d565b9091555050604051818152600160a060020a038316906000907fddf252ad1be2c89b69c2b068fc378daa952ba7f163c4a11628f55a4df523b3ef9060200160405180910390a35050565b600160a060020a0382166116715760405160e560020a62461bcd02815260206004820152602160248201527f45524332303a206275726e2066726f6d20746865207a65726f2061646472657360448201527f73000000000000000000000000000000000000000000000000000000000000006064820152608401610473565b600160a060020a038216600090815260208190526040902054818110156117035760405160e560020a62461bcd02815260206004820152602260248201527f45524332303a206275726e20616d6f756e7420657863656564732062616c616e60448201527f63650000000000000000000000000000000000000000000000000000000000006064820152608401610473565b600160a060020a0383166000908152602081905260408120838303905560028054849290611732908490611baf565b9091555050604051828152600090600160a060020a038516907fddf252ad1be2c89b69c2b068fc378daa952ba7f163c4a11628f55a4df523b3ef9060200160405180910390a3505050565b606061178c8484600085611794565b949350505050565b606030318311156118105760405160e560020a62461bcd02815260206004820152602660248201527f416464726573733a20696e73756666696369656e742062616c616e636520666f60448201527f722063616c6c00000000000000000000000000000000000000000000000000006064820152608401610473565b600160a060020a0385163b61186a5760405160e560020a62461bcd02815260206004820152601d60248201527f416464726573733a2063616c6c20746f206e6f6e2d636f6e74726163740000006044820152606401610473565b60008086600160a060020a031685876040516118869190611a5a565b60006040518083038185875af1925050503d80600081146118c3576040519150601f19603f3d011682016040523d82523d6000602084013e6118c8565b606091505b50915091506118d88282866118e3565b979650505050505050565b606083156118f2575081610579565b8251156119025782518084602001fd5b8160405160e560020a62461bcd0281526004016104739190611a76565b8035600160a060020a038116811461066c57600080fd5b60006020828403121561194857600080fd5b6105798261191f565b6000806040838503121561196457600080fd5b61196d8361191f565b915061197b6020840161191f565b90509250929050565b60008060006060848603121561199957600080fd5b6119a28461191f565b92506119b06020850161191f565b9150604084013590509250925092565b600080604083850312156119d357600080fd5b6119dc8361191f565b946020939093013593505050565b6000602082840312156119fc57600080fd5b8151801515811461057957600080fd5b600060208284031215611a1e57600080fd5b5035919050565b600080600060608486031215611a3a57600080fd5b8335925060208401359150611a516040850161191f565b90509250925092565b60008251611a6c818460208701611bef565b9190910192915050565b6020815260008251806020840152611a95816040850160208701611bef565b601f01601f19169190910160400192915050565b6020808252601e908201527f616d6f756e74206c6f776572207468616e206d696e2e20616d6f756e74210000604082015260600190565b60208082526025908201527f44656e6965642063616e206f6e6c79206265206163636573736564206279207260408201527f6f75746572000000000000000000000000000000000000000000000000000000606082015260800190565b60008219821115611b5057611b50611c6f565b500190565b600082611b8b577f4e487b7100000000000000000000000000000000000000000000000000000000600052601260045260246000fd5b500490565b6000816000190483118215151615611baa57611baa611c6f565b500290565b600082821015611bc157611bc1611c6f565b500390565b600067ffffffffffffffff83811690831681811015611be757611be7611c6f565b039392505050565b60005b83811015611c0a578181015183820152602001611bf2565b838111156111615750506000910152565b600281046001821680611c2f57607f821691505b60208210811415611c69577f4e487b7100000000000000000000000000000000000000000000000000000000600052602260045260246000fd5b50919050565b7f4e487b7100000000000000000000000000000000000000000000000000000000600052601160045260246000fdfea26469706673582212209d38fda5d9638eb7e67831f8e2a129bfffddce2a581d61f9d152858529528ebd64736f6c63430008070033",
  "immutableReferences": {},
  "source": "// SPDX-License-Identifier: MIT\npragma solidity ^0.8.7;\n\nimport \"./JupyterLiquidityTokenV1.sol\";\nimport \"./JupyterCoreHelperV1.sol\";\nimport \"./IJupyterCoreV1.sol\";\n\ncontract JupyterCoreV1 is\n    IJupyterCoreV1,\n    JupyterCoreHelperV1,\n    JupyterLiquidityTokenV1\n{\n    using SafeERC20 for IERC20;\n    address Router;\n    modifier minValue(uint256 _amount) {\n        require(_amount > _minAmount, \"amount lower than min. amount!\");\n        _;\n    }\n    \n    modifier calledByRouter() {\n        require(msg.sender == Router, \"Denied can only be accessed by router\");\n        _;\n    }\n\n    uint256 public token0Balance;\n    uint256 public token1Balance;\n\n    address vaultAddress;\n\n    bool private initialDepositDone = false;\n\n    IERC20 public token0;\n    IERC20 public token1;\n\n    event PoolClosed(address poolAddress,address tokenAddress);\n\n    constructor(\n        address _token0,\n        address _token1,\n        address _protocolAddress\n    ) {\n        Router = msg.sender;\n        require(\n            _token0 != address(0) &&\n                _token1 != address(0) &&\n                _protocolAddress != address(0),\n            \"Zero address not allowed\"\n        );\n        token0 = IERC20(_token0);\n        token1 = IERC20(_token1);\n        vaultAddress = _protocolAddress;\n    }\n\n    function initialDeposit(\n        uint256 _token0Amount,\n        uint256 _token1Amount,\n        address from\n    )\n        external\n        override\n        calledByRouter\n        minValue(_token0Amount)\n        minValue(_token1Amount)\n    {\n        //Checks\n        require(!initialDepositDone, \"already done use deposit()\");\n        //Effects\n        mint(_token0Amount * _token1Amount, from);\n        initialDepositDone = true;\n        //Interactions\n        _rcvTokens(token0, _token0Amount, Router);\n        _rcvTokens(token1, _token1Amount, from);\n    }\n\n    //---Deposit and withdraw\n    function deposit(\n        uint256 _token0Amount,\n        uint256 _token1Amount,\n        address from\n    )\n        external\n        override\n        calledByRouter\n        minValue(_token0Amount)\n        minValue(_token1Amount)\n    {\n        //Checks\n        require(\n            _token1Amount <= _scaleUp(_token0Amount+1000) / rate() && _token1Amount >= _scaleUp(_token0Amount-1000) / rate(),\n            \"Wrong amount of tokens sent\"\n        );\n        //Effects\n        mint((totalSupply() * _token0Amount) / token1Balance, from);\n        //Interactions\n        _rcvTokens(token1, _scaleUp(_token0Amount) / rate(), from);\n        _rcvTokens(token0, _token0Amount, from);\n    }\n\n    function withdraw(address from,uint256 _withdrawalAmount)\n        external\n        override\n        calledByRouter\n        returns (uint256)\n    {\n        //Check\n        uint256 userTokenBalance = balanceOf(from);\n        require(userTokenBalance >= _withdrawalAmount, \"Balance too low\");\n        //Effects\n        uint256 partOfPool = totalSupply() / _withdrawalAmount;\n        uint256 token0Withdrawal = token0Balance / partOfPool;\n        uint256 token1Withdrawal = token1Balance / partOfPool;\n\n        burn(_withdrawalAmount, from);\n        token0Balance -= token0Withdrawal;\n        token1Balance -= token1Withdrawal;\n\n        //Interactions\n        token0.safeTransfer(Router, token0Withdrawal);\n        token1.safeTransfer(from, token1Withdrawal);\n        if(totalSupply() <= 10000){\n            emit PoolClosed(address(this), address(token1));\n            selfdestruct(payable(vaultAddress));\n        }\n        return token0Withdrawal;\n    }\n\n    //---Trade\n\n    //---Trade\n    function swapToken0ToToken1(\n        uint256 _token0Amount,\n        uint256 _token1AmountMin,\n        address from\n    ) external override calledByRouter minValue(_token0Amount) returns(uint256) {\n        //Checks\n        uint256 token1Withdrawal = getToken1AmountFromToken0Amount(\n            _token0Amount\n        );\n        require(token1Withdrawal >= _token1AmountMin, \"Price changed\");\n\n        //Effects\n        token1Balance -= token1Withdrawal;\n        _sendProtocolFeeToken1(token1Withdrawal);\n\n        //Interactions\n        _rcvTokens(token0, _token0Amount, from);\n        token1.safeTransfer(from, token1Withdrawal);\n        return token1Withdrawal;\n    }\n\n    function swapToken1ToToken0(\n        uint256 _token1Amount,\n        uint256 _token0AmountMin,\n        address from\n    )\n        external\n        override\n        calledByRouter\n        minValue(_token1Amount)\n        returns (uint256)\n    {\n        //Checks\n        uint256 tokenWithdrawal = getToken0AmountFromToken1Amount(\n            _token1Amount\n        );\n        require(tokenWithdrawal >= _token0AmountMin, \"Price changed\");\n        //\n        ////Effects\n        token0Balance -= tokenWithdrawal;\n        _sendProtocolFeeToken0(tokenWithdrawal);\n        //\n        ////Interactions\n        _rcvTokens(token1, _token1Amount, from);\n        token0.safeTransfer(Router, tokenWithdrawal);\n        return tokenWithdrawal;\n    }\n\n    function getToken1AmountFromToken0Amount(uint256 tokenAmount)\n        public\n        view\n        calledByRouter\n        returns (uint256)\n    {\n        return\n            _subtractFee(\n                (tokenAmount * token1Balance) / (token0Balance + tokenAmount)\n            );\n    }\n\n    function getToken0AmountFromToken1Amount(uint256 tokenAmount)\n        public\n        view\n        calledByRouter\n        returns (uint256)\n    {\n        return\n            _subtractFee(\n                (tokenAmount * token0Balance) / (token1Balance + tokenAmount)\n            );\n    }\n\n    //---helper\n    function _rcvTokens(\n        IERC20 token,\n        uint256 amount,\n        address from\n    ) private {\n        //Checks\n        // require(token.balanceOf(from) >= amount, \"Your balance is too too low\");\n        require(_minAmount <= amount, \"Sent amount too low\");\n        //Effects\n        if (address(token) == address(token0)) {\n            token0Balance += amount;\n        } else if (address(token) == address(token1)) {\n            token1Balance += amount;\n        }\n    }\n\n    function rate() public view calledByRouter returns (uint256) {\n        return _scaleUp(token0Balance) / token1Balance;\n    }\n\n    function _subtractFee(uint256 value) private pure returns (uint256) {\n        return (value * (_scaleFactor - _percentFee)) / _scaleFactor;\n    }\n\n    function _sendProtocolFeeToken0(uint256 value) private {\n        uint256 amount = _scaleDown(value * _protocolFee);\n        mint((totalSupply() / (2 * token1Balance)) * amount, vaultAddress);\n    }\n\n    function _sendProtocolFeeToken1(uint256 value) private {\n        uint256 amount = _scaleDown(value * _protocolFee);\n        mint((totalSupply() / (2 * token0Balance)) * amount, vaultAddress);\n    }\n\n    function getBalances(address from)\n        public\n        view\n        calledByRouter\n        returns (uint256, uint256)\n    {\n        uint256 userTokenBalance = balanceOf(from);\n        uint256 partOfPool = totalSupply() / userTokenBalance;\n        uint256 token0Withdrawal = token0Balance / partOfPool;\n        uint256 token1Withdrawal = token1Balance / partOfPool;\n        return (token0Withdrawal, token1Withdrawal);\n    }\n}",
  "sourcePath": "/home/olio/Desktop/JPN-GITHUB/Jupyter-Swap/Contracts/contracts/V1/Core/JupyterCoreV1.sol",
  "compiler": {
    "name": "solc",
    "version": "0.8.7+commit.e28d00a7.Emscripten.clang"
  },
  "schemaVersion": "3.4.6",
  "updatedAt": "2022-05-14T07:35:59.593Z",
  "networkType": "ethereum",
  "devdoc": {
    "kind": "dev",
    "methods": {
      "allowance(address,address)": {
        "details": "See {IERC20-allowance}."
      },
      "approve(address,uint256)": {
        "details": "See {IERC20-approve}. NOTE: If `amount` is the maximum `uint256`, the allowance is not updated on `transferFrom`. This is semantically equivalent to an infinite approval. Requirements: - `spender` cannot be the zero address."
      },
      "balanceOf(address)": {
        "details": "See {IERC20-balanceOf}."
      },
      "decimals()": {
        "details": "Returns the number of decimals used to get its user representation. For example, if `decimals` equals `2`, a balance of `505` tokens should be displayed to a user as `5.05` (`505 / 10 ** 2`). Tokens usually opt for a value of 18, imitating the relationship between Ether and Wei. This is the value {ERC20} uses, unless this function is overridden; NOTE: This information is only used for _display_ purposes: it in no way affects any of the arithmetic of the contract, including {IERC20-balanceOf} and {IERC20-transfer}."
      },
      "decreaseAllowance(address,uint256)": {
        "details": "Atomically decreases the allowance granted to `spender` by the caller. This is an alternative to {approve} that can be used as a mitigation for problems described in {IERC20-approve}. Emits an {Approval} event indicating the updated allowance. Requirements: - `spender` cannot be the zero address. - `spender` must have allowance for the caller of at least `subtractedValue`."
      },
      "increaseAllowance(address,uint256)": {
        "details": "Atomically increases the allowance granted to `spender` by the caller. This is an alternative to {approve} that can be used as a mitigation for problems described in {IERC20-approve}. Emits an {Approval} event indicating the updated allowance. Requirements: - `spender` cannot be the zero address."
      },
      "name()": {
        "details": "Returns the name of the token."
      },
      "symbol()": {
        "details": "Returns the symbol of the token, usually a shorter version of the name."
      },
      "totalSupply()": {
        "details": "See {IERC20-totalSupply}."
      },
      "transfer(address,uint256)": {
        "details": "See {IERC20-transfer}. Requirements: - `to` cannot be the zero address. - the caller must have a balance of at least `amount`."
      },
      "transferFrom(address,address,uint256)": {
        "details": "See {IERC20-transferFrom}. Emits an {Approval} event indicating the updated allowance. This is not required by the EIP. See the note at the beginning of {ERC20}. NOTE: Does not update the allowance if the current allowance is the maximum `uint256`. Requirements: - `from` and `to` cannot be the zero address. - `from` must have a balance of at least `amount`. - the caller must have allowance for ``from``'s tokens of at least `amount`."
      }
    },
    "version": 1
  },
  "userdoc": {
    "kind": "user",
    "methods": {},
    "version": 1
  }
}