{
  "contractName": "JupyterRouterV1",
  "abi": [
    {
      "inputs": [
        {
          "internalType": "address",
          "name": "_protocolAddress",
          "type": "address"
        },
        {
          "internalType": "address",
          "name": "_wbnb",
          "type": "address"
        }
      ],
      "stateMutability": "nonpayable",
      "type": "constructor"
    },
    {
      "anonymous": false,
      "inputs": [
        {
          "indexed": false,
          "internalType": "address",
          "name": "pool",
          "type": "address"
        },
        {
          "indexed": false,
          "internalType": "uint256",
          "name": "token0Balance",
          "type": "uint256"
        },
        {
          "indexed": false,
          "internalType": "uint256",
          "name": "token1Balance",
          "type": "uint256"
        },
        {
          "indexed": false,
          "internalType": "uint256",
          "name": "lpTotalSupply",
          "type": "uint256"
        }
      ],
      "name": "AddLiquidity",
      "type": "event"
    },
    {
      "anonymous": false,
      "inputs": [
        {
          "indexed": false,
          "internalType": "address",
          "name": "pool",
          "type": "address"
        }
      ],
      "name": "ClosePool",
      "type": "event"
    },
    {
      "anonymous": false,
      "inputs": [
        {
          "indexed": false,
          "internalType": "address",
          "name": "token",
          "type": "address"
        },
        {
          "indexed": false,
          "internalType": "address",
          "name": "pool",
          "type": "address"
        },
        {
          "indexed": false,
          "internalType": "uint256",
          "name": "rate",
          "type": "uint256"
        }
      ],
      "name": "CreateLiquidityPool",
      "type": "event"
    },
    {
      "anonymous": false,
      "inputs": [
        {
          "indexed": false,
          "internalType": "address",
          "name": "from",
          "type": "address"
        },
        {
          "indexed": false,
          "internalType": "address",
          "name": "to",
          "type": "address"
        },
        {
          "indexed": false,
          "internalType": "uint256",
          "name": "fromAmount",
          "type": "uint256"
        },
        {
          "indexed": false,
          "internalType": "uint256",
          "name": "toAmount",
          "type": "uint256"
        },
        {
          "indexed": false,
          "internalType": "uint256",
          "name": "rate",
          "type": "uint256"
        }
      ],
      "name": "ExchangeTokens",
      "type": "event"
    },
    {
      "anonymous": false,
      "inputs": [
        {
          "indexed": false,
          "internalType": "address",
          "name": "pool",
          "type": "address"
        },
        {
          "indexed": false,
          "internalType": "uint256",
          "name": "token0Balance",
          "type": "uint256"
        },
        {
          "indexed": false,
          "internalType": "uint256",
          "name": "token1Balance",
          "type": "uint256"
        },
        {
          "indexed": false,
          "internalType": "uint256",
          "name": "lpTotalSupply",
          "type": "uint256"
        }
      ],
      "name": "RemoveLiquidity",
      "type": "event"
    },
    {
      "inputs": [
        {
          "internalType": "address",
          "name": "",
          "type": "address"
        },
        {
          "internalType": "address",
          "name": "",
          "type": "address"
        }
      ],
      "name": "pairs",
      "outputs": [
        {
          "internalType": "contract JupyterCoreV1",
          "name": "",
          "type": "address"
        }
      ],
      "stateMutability": "view",
      "type": "function",
      "constant": true
    },
    {
      "stateMutability": "payable",
      "type": "receive",
      "payable": true
    },
    {
      "inputs": [
        {
          "internalType": "address",
          "name": "_token1Address",
          "type": "address"
        },
        {
          "internalType": "uint256",
          "name": "_token1Amount",
          "type": "uint256"
        },
        {
          "internalType": "uint256",
          "name": "deadline",
          "type": "uint256"
        }
      ],
      "name": "createLiquidityPool",
      "outputs": [],
      "stateMutability": "payable",
      "type": "function",
      "payable": true
    },
    {
      "inputs": [
        {
          "internalType": "address",
          "name": "_token1Address",
          "type": "address"
        },
        {
          "internalType": "uint256",
          "name": "_token1Amount",
          "type": "uint256"
        },
        {
          "internalType": "uint256",
          "name": "deadline",
          "type": "uint256"
        }
      ],
      "name": "addLiquidity",
      "outputs": [],
      "stateMutability": "payable",
      "type": "function",
      "payable": true
    },
    {
      "inputs": [
        {
          "internalType": "address",
          "name": "_token1Address",
          "type": "address"
        },
        {
          "internalType": "uint256",
          "name": "_withdrawalAmount",
          "type": "uint256"
        },
        {
          "internalType": "uint256",
          "name": "deadline",
          "type": "uint256"
        }
      ],
      "name": "removeLiquidity",
      "outputs": [],
      "stateMutability": "nonpayable",
      "type": "function"
    },
    {
      "inputs": [
        {
          "internalType": "address",
          "name": "_tokenAddress",
          "type": "address"
        },
        {
          "internalType": "uint256",
          "name": "_tokenAmountMin",
          "type": "uint256"
        },
        {
          "internalType": "uint256",
          "name": "deadline",
          "type": "uint256"
        }
      ],
      "name": "swapETHToToken",
      "outputs": [],
      "stateMutability": "payable",
      "type": "function",
      "payable": true
    },
    {
      "inputs": [
        {
          "internalType": "address",
          "name": "_tokenAddress",
          "type": "address"
        },
        {
          "internalType": "uint256",
          "name": "_tokenAmount",
          "type": "uint256"
        },
        {
          "internalType": "uint256",
          "name": "_ethAmountMin",
          "type": "uint256"
        },
        {
          "internalType": "uint256",
          "name": "deadline",
          "type": "uint256"
        }
      ],
      "name": "swapTokenToETH",
      "outputs": [],
      "stateMutability": "payable",
      "type": "function",
      "payable": true
    },
    {
      "inputs": [
        {
          "internalType": "address",
          "name": "_token1Address",
          "type": "address"
        },
        {
          "internalType": "uint256",
          "name": "amount",
          "type": "uint256"
        }
      ],
      "name": "getToken1AmountFromToken0Amount",
      "outputs": [
        {
          "internalType": "uint256",
          "name": "",
          "type": "uint256"
        }
      ],
      "stateMutability": "view",
      "type": "function",
      "constant": true
    },
    {
      "inputs": [
        {
          "internalType": "address",
          "name": "_token1Address",
          "type": "address"
        },
        {
          "internalType": "uint256",
          "name": "amount",
          "type": "uint256"
        }
      ],
      "name": "getToken0AmountFromToken1Amount",
      "outputs": [
        {
          "internalType": "uint256",
          "name": "",
          "type": "uint256"
        }
      ],
      "stateMutability": "view",
      "type": "function",
      "constant": true
    },
    {
      "inputs": [
        {
          "internalType": "address",
          "name": "token1Address",
          "type": "address"
        }
      ],
      "name": "getRate",
      "outputs": [
        {
          "internalType": "uint256",
          "name": "",
          "type": "uint256"
        }
      ],
      "stateMutability": "view",
      "type": "function",
      "constant": true
    },
    {
      "inputs": [
        {
          "internalType": "address",
          "name": "token1Address",
          "type": "address"
        }
      ],
      "name": "getBalance",
      "outputs": [
        {
          "internalType": "uint256",
          "name": "",
          "type": "uint256"
        }
      ],
      "stateMutability": "view",
      "type": "function",
      "constant": true
    },
    {
      "inputs": [
        {
          "internalType": "address",
          "name": "_token1Address",
          "type": "address"
        },
        {
          "internalType": "uint256",
          "name": "_amount",
          "type": "uint256"
        }
      ],
      "name": "getDepositAmount",
      "outputs": [
        {
          "internalType": "uint256",
          "name": "",
          "type": "uint256"
        }
      ],
      "stateMutability": "view",
      "type": "function",
      "constant": true
    },
    {
      "inputs": [
        {
          "internalType": "address",
          "name": "_token1Address",
          "type": "address"
        }
      ],
      "name": "getLPTotalSupply",
      "outputs": [
        {
          "internalType": "uint256",
          "name": "",
          "type": "uint256"
        }
      ],
      "stateMutability": "view",
      "type": "function",
      "constant": true
    },
    {
      "inputs": [
        {
          "internalType": "address",
          "name": "_token1Address",
          "type": "address"
        }
      ],
      "name": "getTokenBalances",
      "outputs": [
        {
          "internalType": "uint256",
          "name": "",
          "type": "uint256"
        },
        {
          "internalType": "uint256",
          "name": "",
          "type": "uint256"
        }
      ],
      "stateMutability": "view",
      "type": "function",
      "constant": true
    },
    {
      "inputs": [
        {
          "internalType": "address",
          "name": "_token1Address",
          "type": "address"
        }
      ],
      "name": "getPoolBalances",
      "outputs": [
        {
          "internalType": "uint256",
          "name": "",
          "type": "uint256"
        },
        {
          "internalType": "uint256",
          "name": "",
          "type": "uint256"
        }
      ],
      "stateMutability": "view",
      "type": "function",
      "constant": true
    },
    {
      "inputs": [
        {
          "internalType": "address",
          "name": "_fromToken",
          "type": "address"
        },
        {
          "internalType": "address",
          "name": "_toToken",
          "type": "address"
        },
        {
          "internalType": "uint256",
          "name": "_fromAmount",
          "type": "uint256"
        },
        {
          "internalType": "uint256",
          "name": "_toMinAmount",
          "type": "uint256"
        },
        {
          "internalType": "uint256",
          "name": "deadline",
          "type": "uint256"
        }
      ],
      "name": "swapTokens",
      "outputs": [],
      "stateMutability": "nonpayable",
      "type": "function"
    },
    {
      "inputs": [
        {
          "internalType": "address",
          "name": "_fromToken",
          "type": "address"
        },
        {
          "internalType": "address",
          "name": "_toToken",
          "type": "address"
        },
        {
          "internalType": "uint256",
          "name": "_fromAmount",
          "type": "uint256"
        }
      ],
      "name": "getTokenToTokenQuote",
      "outputs": [
        {
          "internalType": "uint256",
          "name": "",
          "type": "uint256"
        }
      ],
      "stateMutability": "view",
      "type": "function",
      "constant": true
    },
    {
      "inputs": [
        {
          "internalType": "address",
          "name": "_token1Address",
          "type": "address"
        }
      ],
      "name": "getAddress",
      "outputs": [
        {
          "internalType": "address",
          "name": "",
          "type": "address"
        }
      ],
      "stateMutability": "view",
      "type": "function",
      "constant": true
    }
  ],
  "bytecode": "0x60806040523480156200001157600080fd5b506040516200486638038062004866833981016040819052620000349162000083565b60018054600160a060020a03938416600160a060020a03199182161790915560028054929093169116179055620000bb565b8051600160a060020a03811681146200007e57600080fd5b919050565b600080604083850312156200009757600080fd5b620000a28362000066565b9150620000b26020840162000066565b90509250929050565b61479b80620000cb6000396000f3fe6080604052600436106200011b5760003560e060020a9004806369454b8611620000a5578063ae22c57d1162000070578063ae22c57d1462000331578063bf2fcbdb1462000356578063d02bf22f146200036d578063e38192e31462000392578063f8b2cb4f14620003b757600080fd5b806369454b861462000251578063764f3aa814620002ac5780637b50f8c514620002e75780639d79e90d146200030c57600080fd5b8063539979cd11620000e6578063539979cd14620001d957806355776b7714620001fe5780635ed4a20d1462000215578063651d9ea0146200023a57600080fd5b806308229cf1146200014057806337cef791146200015757806343d91bf1146200018f5780634bccf26214620001b457600080fd5b366200013b57600254600160a060020a031633146200013957600080fd5b005b600080fd5b620001396200015136600462002493565b620003dc565b3480156200016457600080fd5b506200017c620001763660046200236a565b6200057a565b6040519081526020015b60405180910390f35b3480156200019c57600080fd5b5062000139620001ae3660046200240e565b620006b1565b348015620001c157600080fd5b506200017c620001d33660046200236a565b62000af3565b348015620001e657600080fd5b506200017c620001f836600462002464565b62000b82565b620001396200020f36600462002493565b62000bee565b3480156200022257600080fd5b506200017c62000234366004620023c8565b62000f12565b620001396200024b366004620024cb565b6200112d565b3480156200025e57600080fd5b5062000293620002703660046200238a565b6000602081815292815260408082209093529081522054600160a060020a031681565b604051600160a060020a03909116815260200162000186565b348015620002b957600080fd5b50620002d1620002cb3660046200236a565b620012da565b6040805192835260208301919091520162000186565b348015620002f457600080fd5b50620002d1620003063660046200236a565b62001414565b3480156200031957600080fd5b506200017c6200032b36600462002464565b62001520565b3480156200033e57600080fd5b5062000293620003503660046200236a565b62001578565b620001396200036736600462002493565b62001586565b3480156200037a57600080fd5b506200017c6200038c36600462002464565b620018b5565b3480156200039f57600080fd5b5062000139620003b136600462002493565b6200195d565b348015620003c457600080fd5b506200017c620003d63660046200236a565b62001d54565b80428110156200040c5760405160e560020a62461bcd0281526004016200040390620025eb565b60405180910390fd5b6000620004198562001e4c565b9050600081600160a060020a031663203668e03487336040518463ffffffff1660e060020a028152600401620004529392919062002659565b602060405180830381600087803b1580156200046d57600080fd5b505af115801562000482573d6000803e3d6000fd5b505050506040513d601f19601f82011682018060405250810190620004a891906200254d565b9050620004b6823462001e7a565b60008051602062004746833981519152600260009054906101000a9004600160a060020a031687348486600160a060020a0316632c4e722e6040518163ffffffff1660e060020a02815260040160206040518083038186803b1580156200051c57600080fd5b505afa15801562000531573d6000803e3d6000fd5b505050506040513d601f19601f820116820180604052508101906200055791906200254d565b6040516200056a95949392919062002585565b60405180910390a1505050505050565b600254600160a060020a0390811660008181526020818152604080832086861684529091528120549092849116620005f85760405160e560020a62461bcd02815260206004820152601160248201527f5061697220646f65736e74206578697374000000000000000000000000000000604482015260640162000403565b600254600160a060020a0390811660009081526020818152604080832088851684528252918290205482517f2c4e722e0000000000000000000000000000000000000000000000000000000081529251931692632c4e722e926004808201939291829003018186803b1580156200066e57600080fd5b505afa15801562000683573d6000803e3d6000fd5b505050506040513d601f19601f82011682018060405250810190620006a991906200254d565b949350505050565b600254600160a060020a0386811691161415620007145760405160e560020a62461bcd02815260206004820152601a60248201527f46756e6374696f6e20646f6573206e6f74207377617020626e62000000000000604482015260640162000403565b6000620007218662001e4c565b9050600160a060020a0381166200074f5760405160e560020a62461bcd028152600401620004039062002622565b60006200075c8662001e4c565b9050600160a060020a0381166200078a5760405160e560020a62461bcd028152600401620004039062002622565b6040517ff405cfe200000000000000000000000000000000000000000000000000000000815260048101869052600090600160a060020a0384169063f405cfe29060240160206040518083038186803b158015620007e757600080fd5b505afa158015620007fc573d6000803e3d6000fd5b505050506040513d601f19601f820116820180604052508101906200082291906200254d565b9050600083600160a060020a03166399c91cd08884866040518463ffffffff1660e060020a0281526004016200085b9392919062002659565b602060405180830381600087803b1580156200087657600080fd5b505af11580156200088b573d6000803e3d6000fd5b505050506040513d601f19601f82011682018060405250810190620008b191906200254d565b9050600083600160a060020a031663203668e08389306040518463ffffffff1660e060020a028152600401620008ea9392919062002659565b602060405180830381600087803b1580156200090557600080fd5b505af11580156200091a573d6000803e3d6000fd5b505050506040513d601f19601f820116820180604052508101906200094091906200254d565b905062000959600160a060020a038b1633878b62001f91565b6200096f600160a060020a038a1633836200204a565b600080516020620047468339815191528a600260009054906101000a9004600160a060020a03168a8589600160a060020a0316632c4e722e6040518163ffffffff1660e060020a02815260040160206040518083038186803b158015620009d557600080fd5b505afa158015620009ea573d6000803e3d6000fd5b505050506040513d601f19601f8201168201806040525081019062000a1091906200254d565b60405162000a2395949392919062002585565b60405180910390a160008051602062004746833981519152600260009054906101000a9004600160a060020a03168a848488600160a060020a0316632c4e722e6040518163ffffffff1660e060020a02815260040160206040518083038186803b15801562000a9157600080fd5b505afa15801562000aa6573d6000803e3d6000fd5b505050506040513d601f19601f8201168201806040525081019062000acc91906200254d565b60405162000adf95949392919062002585565b60405180910390a150505050505050505050565b60008062000b018362001e4c565b905080600160a060020a03166318160ddd6040518163ffffffff1660e060020a02815260040160206040518083038186803b15801562000b4057600080fd5b505afa15801562000b55573d6000803e3d6000fd5b505050506040513d601f19601f8201168201806040525081019062000b7b91906200254d565b9392505050565b60008062000b908462001e4c565b6040517ff405cfe200000000000000000000000000000000000000000000000000000000815260048101859052909150600160a060020a0382169063f405cfe2906024015b60206040518083038186803b1580156200066e57600080fd5b804281101562000c155760405160e560020a62461bcd0281526004016200040390620025eb565b600254600160a060020a039081166000908152602081815260408083208885168452909152908190205490517f8dbdbe6d0000000000000000000000000000000000000000000000000000000081529116908190638dbdbe6d9062000c839034908890339060040162002659565b600060405180830381600087803b15801562000c9e57600080fd5b505af115801562000cb3573d6000803e3d6000fd5b5050505062000cc3813462001e7a565b62000d5433828684600160a060020a031663d21220a76040518163ffffffff1660e060020a02815260040160206040518083038186803b15801562000d0757600080fd5b505afa15801562000d1c573d6000803e3d6000fd5b505050506040513d601f19601f8201168201806040525081019062000d4291906200252d565b600160a060020a031692919062001f91565b7fbeb3885786d637a474cbc287c0a44587231633a077f0bd30354d5a4b18996fce8182600160a060020a03166363fcefda6040518163ffffffff1660e060020a02815260040160206040518083038186803b15801562000db357600080fd5b505afa15801562000dc8573d6000803e3d6000fd5b505050506040513d601f19601f8201168201806040525081019062000dee91906200254d565b83600160a060020a031663b9ffa6a86040518163ffffffff1660e060020a02815260040160206040518083038186803b15801562000e2b57600080fd5b505afa15801562000e40573d6000803e3d6000fd5b505050506040513d601f19601f8201168201806040525081019062000e6691906200254d565b84600160a060020a03166318160ddd6040518163ffffffff1660e060020a02815260040160206040518083038186803b15801562000ea357600080fd5b505afa15801562000eb8573d6000803e3d6000fd5b505050506040513d601f19601f8201168201806040525081019062000ede91906200254d565b60408051600160a060020a039095168552602085019390935291830152606082015260800160405180910390a15050505050565b600254600090600160a060020a038581169116141562000f785760405160e560020a62461bcd02815260206004820152601a60248201527f46756e6374696f6e20646f6573206e6f74207377617020626e62000000000000604482015260640162000403565b600062000f858562001e4c565b9050600160a060020a03811662000fb35760405160e560020a62461bcd028152600401620004039062002622565b600062000fc08562001e4c565b9050600160a060020a03811662000fee5760405160e560020a62461bcd028152600401620004039062002622565b6040517ff405cfe200000000000000000000000000000000000000000000000000000000815260048101859052600090600160a060020a0384169063f405cfe29060240160206040518083038186803b1580156200104b57600080fd5b505afa15801562001060573d6000803e3d6000fd5b505050506040513d601f19601f820116820180604052508101906200108691906200254d565b6040517f042b029700000000000000000000000000000000000000000000000000000000815260048101829052909150600090600160a060020a0384169063042b02979060240160206040518083038186803b158015620010e657600080fd5b505afa158015620010fb573d6000803e3d6000fd5b505050506040513d601f19601f820116820180604052508101906200112191906200254d565b98975050505050505050565b8042811015620011545760405160e560020a62461bcd0281526004016200040390620025eb565b6000620011618662001e4c565b9050600081600160a060020a03166399c91cd08787306040518463ffffffff1660e060020a0281526004016200119a9392919062002659565b602060405180830381600087803b158015620011b557600080fd5b505af1158015620011ca573d6000803e3d6000fd5b505050506040513d601f19601f82011682018060405250810190620011f091906200254d565b905062001209600160a060020a03881633848962001f91565b62001215813362002095565b6000805160206200474683398151915287600260009054906101000a9004600160a060020a0316888486600160a060020a0316632c4e722e6040518163ffffffff1660e060020a02815260040160206040518083038186803b1580156200127b57600080fd5b505afa15801562001290573d6000803e3d6000fd5b505050506040513d601f19601f82011682018060405250810190620012b691906200254d565b604051620012c995949392919062002585565b60405180910390a150505050505050565b6002546040517f70a082310000000000000000000000000000000000000000000000000000000081523360048201526000918291600160a060020a03909116906370a082319060240160206040518083038186803b1580156200133c57600080fd5b505afa15801562001351573d6000803e3d6000fd5b505050506040513d601f19601f820116820180604052508101906200137791906200254d565b6040517f70a08231000000000000000000000000000000000000000000000000000000008152336004820152600160a060020a038516906370a082319060240160206040518083038186803b158015620013d057600080fd5b505afa158015620013e5573d6000803e3d6000fd5b505050506040513d601f19601f820116820180604052508101906200140b91906200254d565b91509150915091565b6000806000620014248462001e4c565b905080600160a060020a03166363fcefda6040518163ffffffff1660e060020a02815260040160206040518083038186803b1580156200146357600080fd5b505afa15801562001478573d6000803e3d6000fd5b505050506040513d601f19601f820116820180604052508101906200149e91906200254d565b81600160a060020a031663b9ffa6a86040518163ffffffff1660e060020a02815260040160206040518083038186803b158015620014db57600080fd5b505afa158015620014f0573d6000803e3d6000fd5b505050506040513d601f19601f820116820180604052508101906200151691906200254d565b9250925050915091565b6000806200152e8462001e4c565b6040517f042b029700000000000000000000000000000000000000000000000000000000815260048101859052909150600160a060020a0382169063042b02979060240162000bd5565b60008062000b7b8362001e4c565b8042811015620015ad5760405160e560020a62461bcd0281526004016200040390620025eb565b600254600160a060020a0390811660009081526020818152604080832088851684529091529020541615620016285760405160e560020a62461bcd02815260206004820152600b60248201527f5061697220657869737473000000000000000000000000000000000000000000604482015260640162000403565b600254600154604051600092600160a060020a0390811692889291169062001650906200235c565b600160a060020a03938416815291831660208301529091166040820152606001604051809103906000f0801580156200168d573d6000803e3d6000fd5b5060028054600160a060020a039081166000908152602081815260408083208b851684528252808320805485881673ffffffffffffffffffffffffffffffffffffffff19918216811790925584845282852096549095168452949091529081902080549092168317909155517f909665aa0000000000000000000000000000000000000000000000000000000081529192509063909665aa906200173a9034908890339060040162002659565b600060405180830381600087803b1580156200175557600080fd5b505af11580156200176a573d6000803e3d6000fd5b506200178692505050600160a060020a03861633838762001f91565b62001792813462001e7a565b7f012ae79c1becbebdc7eddd1b88e5fc44f8e126e409f26d7e85e3085da72234ec858283600160a060020a0316632c4e722e6040518163ffffffff1660e060020a02815260040160206040518083038186803b158015620017f257600080fd5b505afa15801562001807573d6000803e3d6000fd5b505050506040513d601f19601f820116820180604052508101906200182d91906200254d565b60408051600160a060020a0394851681529390921660208401529082015260600160405180910390a17fbeb3885786d637a474cbc287c0a44587231633a077f0bd30354d5a4b18996fce8182600160a060020a03166363fcefda6040518163ffffffff1660e060020a02815260040160206040518083038186803b15801562000db357600080fd5b600080620018c38462001e4c565b905080600160a060020a0316632c4e722e6040518163ffffffff1660e060020a02815260040160206040518083038186803b1580156200190257600080fd5b505afa15801562001917573d6000803e3d6000fd5b505050506040513d601f19601f820116820180604052508101906200193d91906200254d565b6200195184670de0b6b3a7640000620026b4565b620006a9919062002678565b8042811015620019845760405160e560020a62461bcd0281526004016200040390620025eb565b6000620019918562001e4c565b6040517ff3fef3a300000000000000000000000000000000000000000000000000000000815233600482015260248101869052909150600090600160a060020a0383169063f3fef3a390604401602060405180830381600087803b158015620019f957600080fd5b505af115801562001a0e573d6000803e3d6000fd5b505050506040513d601f19601f8201168201806040525081019062001a3491906200254d565b905062001a42813362002095565b7f59c3a0b60c6ab7deb62e1440c9e72441db6db7dfe514dba8cb18e60c0d896efa8283600160a060020a03166363fcefda6040518163ffffffff1660e060020a02815260040160206040518083038186803b15801562001aa157600080fd5b505afa15801562001ab6573d6000803e3d6000fd5b505050506040513d601f19601f8201168201806040525081019062001adc91906200254d565b84600160a060020a031663b9ffa6a86040518163ffffffff1660e060020a02815260040160206040518083038186803b15801562001b1957600080fd5b505afa15801562001b2e573d6000803e3d6000fd5b505050506040513d601f19601f8201168201806040525081019062001b5491906200254d565b85600160a060020a03166318160ddd6040518163ffffffff1660e060020a02815260040160206040518083038186803b15801562001b9157600080fd5b505afa15801562001ba6573d6000803e3d6000fd5b505050506040513d601f19601f8201168201806040525081019062001bcc91906200254d565b60408051600160a060020a039095168552602085019390935291830152606082015260800160405180910390a181600160a060020a03166363fcefda6040518163ffffffff1660e060020a02815260040160206040518083038186803b15801562001c3657600080fd5b505afa15801562001c4b573d6000803e3d6000fd5b505050506040513d601f19601f8201168201806040525081019062001c7191906200254d565b62001d4c57604051600160a060020a03831681527fd168688b82942009787afafa33467d15ae9a17ccab41c323dbc6bd12579fd7e79060200160405180910390a181600160a060020a03166366805de56040518163ffffffff1660e060020a028152600401600060405180830381600087803b15801562001cf157600080fd5b505af115801562001d06573d6000803e3d6000fd5b5050600254600160a060020a03908116600090815260208181526040808320938c16835292905220805473ffffffffffffffffffffffffffffffffffffffff1916905550505b505050505050565b600254600160a060020a039081166000818152602081815260408083208686168452909152812054909284911662001dd25760405160e560020a62461bcd02815260206004820152601160248201527f5061697220646f65736e74206578697374000000000000000000000000000000604482015260640162000403565b600254600160a060020a039081166000908152602081815260408083208885168452909152908190205490517f70a082310000000000000000000000000000000000000000000000000000000081523360048201529116906370a082319060240160206040518083038186803b1580156200066e57600080fd5b600254600160a060020a03908116600090815260208181526040808320948416835293905291909120541690565b600260009054906101000a9004600160a060020a0316600160a060020a031663d0e30db0826040518263ffffffff1660e060020a0281526004016000604051808303818588803b15801562001ece57600080fd5b505af115801562001ee3573d6000803e3d6000fd5b50506002546040517fa9059cbb000000000000000000000000000000000000000000000000000000008152600160a060020a03878116600483015260248201879052909116935063a9059cbb92506044019050602060405180830381600087803b15801562001f5157600080fd5b505af115801562001f66573d6000803e3d6000fd5b505050506040513d601f19601f8201168201806040525081019062001f8c919062002509565b505050565b604051600160a060020a0380851660248301528316604482015260648101829052620020449085907f23b872dd00000000000000000000000000000000000000000000000000000000906084015b60408051601f198184030181529190526020810180517bffffffffffffffffffffffffffffffffffffffffffffffffffffffff167fffffffff000000000000000000000000000000000000000000000000000000009093169290921790915262002145565b50505050565b604051600160a060020a03831660248201526044810182905262001f8c9084907fa9059cbb000000000000000000000000000000000000000000000000000000009060640162001fdf565b6002546040517f2e1a7d4d00000000000000000000000000000000000000000000000000000000815260048101849052600160a060020a0390911690632e1a7d4d90602401600060405180830381600087803b158015620020f557600080fd5b505af11580156200210a573d6000803e3d6000fd5b5050604051600160a060020a038416925084156108fc02915084906000818181858888f1935050505015801562001f8c573d6000803e3d6000fd5b60006200219c826040518060400160405280602081526020017f5361666545524332303a206c6f772d6c6576656c2063616c6c206661696c656481525085600160a060020a0316620022349092919063ffffffff16565b80519091501562001f8c5780806020019051810190620021bd919062002509565b62001f8c5760405160e560020a62461bcd02815260206004820152602a60248201527f5361666545524332303a204552433230206f7065726174696f6e20646964206e60448201527f6f74207375636365656400000000000000000000000000000000000000000000606482015260840162000403565b6060620006a9848460008585600160a060020a0385163b6200229c5760405160e560020a62461bcd02815260206004820152601d60248201527f416464726573733a2063616c6c20746f206e6f6e2d636f6e7472616374000000604482015260640162000403565b60008086600160a060020a03168587604051620022ba919062002567565b60006040518083038185875af1925050503d8060008114620022f9576040519150601f19603f3d011682016040523d82523d6000602084013e620022fe565b606091505b5091509150620023108282866200231b565b979650505050505050565b606083156200232c57508162000b7b565b8251156200233d5782518084602001fd5b8160405160e560020a62461bcd028152600401620004039190620025b6565b612002806200274483390190565b6000602082840312156200237d57600080fd5b813562000b7b816200272a565b600080604083850312156200239e57600080fd5b8235620023ab816200272a565b91506020830135620023bd816200272a565b809150509250929050565b600080600060608486031215620023de57600080fd5b8335620023eb816200272a565b92506020840135620023fd816200272a565b929592945050506040919091013590565b600080600080600060a086880312156200242757600080fd5b853562002434816200272a565b9450602086013562002446816200272a565b94979496505050506040830135926060810135926080909101359150565b600080604083850312156200247857600080fd5b823562002485816200272a565b946020939093013593505050565b600080600060608486031215620024a957600080fd5b8335620024b6816200272a565b95602085013595506040909401359392505050565b60008060008060808587031215620024e257600080fd5b8435620024ef816200272a565b966020860135965060408601359560600135945092505050565b6000602082840312156200251c57600080fd5b8151801515811462000b7b57600080fd5b6000602082840312156200254057600080fd5b815162000b7b816200272a565b6000602082840312156200256057600080fd5b5051919050565b600082516200257b818460208701620026fb565b9190910192915050565b600160a060020a03958616815293909416602084015260408301919091526060820152608081019190915260a00190565b6020815260008251806020840152620025d7816040850160208701620026fb565b601f01601f19169190910160400192915050565b60208082526010908201527f446561646c696e65207265616368656400000000000000000000000000000000604082015260600190565b60208082526010908201527f546f6b656e206e6f74206c697374656400000000000000000000000000000000604082015260600190565b9283526020830191909152600160a060020a0316604082015260600190565b600082620026af577f4e487b7100000000000000000000000000000000000000000000000000000000600052601260045260246000fd5b500490565b6000816000190483118215151615620026f6577f4e487b7100000000000000000000000000000000000000000000000000000000600052601160045260246000fd5b500290565b60005b8381101562002718578181015183820152602001620026fe565b83811115620020445750506000910152565b600160a060020a03811681146200274057600080fd5b5056fe60806040526008805460a060020a60ff02191690553480156200002157600080fd5b506040516200200238038062002002833981016040819052620000449162000290565b604080518082018252600581527f4a502d4c5000000000000000000000000000000000000000000000000000000060208083019182528351808501909452601184527f4a757079746572204c6971756964697479000000000000000000000000000000908401528151919291620000be91600391620001cd565b508051620000d4906004906020840190620001cd565b505060058054600160a060020a0319163317905550600160a060020a038316158015906200010a5750600160a060020a03821615155b80156200011f5750600160a060020a03811615155b6200018a576040517f08c379a000000000000000000000000000000000000000000000000000000000815260206004820152601860248201527f5a65726f2061646472657373206e6f7420616c6c6f7765640000000000000000604482015260640160405180910390fd5b60098054600160a060020a03948516600160a060020a031991821617909155600a8054938516938216939093179092556008805491909316911617905562000330565b828054620001db90620002da565b90600052602060002090601f016020900481019282620001ff57600085556200024a565b82601f106200021a57805160ff19168380011785556200024a565b828001600101855582156200024a579182015b828111156200024a5782518255916020019190600101906200022d565b50620002589291506200025c565b5090565b5b808211156200025857600081556001016200025d565b8051600160a060020a03811681146200028b57600080fd5b919050565b600080600060608486031215620002a657600080fd5b620002b18462000273565b9250620002c16020850162000273565b9150620002d16040850162000273565b90509250925092565b600281046001821680620002ef57607f821691505b602082108114156200032a577f4e487b7100000000000000000000000000000000000000000000000000000000600052602260045260246000fd5b50919050565b611cc280620003406000396000f3fe608060405234801561001057600080fd5b5060043610610190576000357c01000000000000000000000000000000000000000000000000000000009004806370a08231116100fb578063a9059cbb116100b4578063d21220a71161008e578063d21220a71461034a578063dd62ed3e1461035d578063f3fef3a314610396578063f405cfe2146103a957600080fd5b8063a9059cbb14610306578063b9ffa6a814610319578063c84aae171461032257600080fd5b806370a08231146102895780638dbdbe6d146102b2578063909665aa146102c557806395d89b41146102d857806399c91cd0146102e0578063a457c2d7146102f357600080fd5b806323b872dd1161014d57806323b872dd146102395780632c4e722e1461024c578063313ce56714610254578063395093511461026357806363fcefda1461027657806366805de51461027f57600080fd5b8063042b02971461019557806306fdde03146101bb578063095ea7b3146101d05780630dfe1681146101f357806318160ddd1461021e578063203668e014610226575b600080fd5b6101a86101a33660046119fa565b6103bc565b6040519081526020015b60405180910390f35b6101c361042a565b6040516101b29190611a64565b6101e36101de3660046119ae565b6104bc565b60405190151581526020016101b2565b60095461020690600160a060020a031681565b604051600160a060020a0390911681526020016101b2565b6002546101a8565b6101a8610234366004611a13565b6104d4565b6101e3610247366004611972565b61061e565b6101a8610644565b604051602481526020016101b2565b6101e36102713660046119ae565b610691565b6101a860065481565b6102876106d0565b005b6101a8610297366004611924565b600160a060020a031660009081526020819052604090205490565b6102876102c0366004611a13565b61071d565b6102876102d3366004611a13565b6108b1565b6101c3610a06565b6101a86102ee366004611a13565b610a15565b6101e36103013660046119ae565b610b50565b6101e36103143660046119ae565b610c08565b6101a860075481565b610335610330366004611924565b610c16565b604080519283526020830191909152016101b2565b600a5461020690600160a060020a031681565b6101a861036b36600461193f565b600160a060020a03918216600090815260016020908152604080832093909416825291909152205490565b6101a86103a43660046119ae565b610cab565b6101a86103b73660046119fa565b610e04565b600554600090600160a060020a031633146103f55760405160e560020a62461bcd0281526004016103ec90611ace565b60405180910390fd5b610422826006546104069190611b2b565b6007546104139085611b7e565b61041d9190611b43565b610e52565b90505b919050565b60606003805461043990611c09565b80601f016020809104026020016040519081016040528092919081815260200182805461046590611c09565b80156104b25780601f10610487576101008083540402835291602001916104b2565b820191906000526020600020905b81548152906001019060200180831161049557829003601f168201915b5050505050905090565b6000336104ca818585610e84565b5060019392505050565b600554600090600160a060020a031633146105045760405160e560020a62461bcd0281526004016103ec90611ace565b83620186a0811161052a5760405160e560020a62461bcd0281526004016103ec90611a97565b6000610535866103bc565b9050600061055261054d660110d9316ec00084611b7e565b610fe2565b9050858210156105a75760405160e560020a62461bcd02815260206004820152600d60248201527f5072696365206368616e6765640000000000000000000000000000000000000060448201526064016103ec565b6105b18183611b2b565b600760008282546105c29190611b9d565b9250508190555086600660008282546105db9190611b2b565b9091555050600854600a546105fd91600160a060020a03918216911683610ff6565b600a5461061490600160a060020a03168684610ff6565b5095945050505050565b60003361062c85828561107b565b610637858585611110565b60019150505b9392505050565b600554600090600160a060020a031633146106745760405160e560020a62461bcd0281526004016103ec90611ace565b600754610682600654611330565b61068c9190611b43565b905090565b336000818152600160209081526040808320600160a060020a03871684529091528120549091906104ca90829086906106cb908790611b2b565b610e84565b600554600160a060020a031633146106fd5760405160e560020a62461bcd0281526004016103ec90611ace565b600061070860025490565b1161071b57600854600160a060020a0316ff5b565b600554600160a060020a0316331461074a5760405160e560020a62461bcd0281526004016103ec90611ace565b82620186a081116107705760405160e560020a62461bcd0281526004016103ec90611a97565b82620186a081116107965760405160e560020a62461bcd0281526004016103ec90611a97565b61079e610644565b6107b26107ad876103e8611b2b565b611330565b6107bc9190611b43565b84111580156107eb57506107ce610644565b6107dd6107ad6103e888611b9d565b6107e79190611b43565b8410155b61083a5760405160e560020a62461bcd02815260206004820152601b60248201527f57726f6e6720616d6f756e74206f6620746f6b656e732073656e74000000000060448201526064016103ec565b6108648560065461084a60025490565b6108549190611b43565b61085e9190611b7e565b84611344565b600a5461089490600160a060020a031661087c610644565b61088588611330565b61088f9190611b43565b611352565b6009546108aa90600160a060020a031686611352565b5050505050565b600554600160a060020a031633146108de5760405160e560020a62461bcd0281526004016103ec90611ace565b82620186a081116109045760405160e560020a62461bcd0281526004016103ec90611a97565b82620186a0811161092a5760405160e560020a62461bcd0281526004016103ec90611a97565b60085474010000000000000000000000000000000000000000900460ff16156109985760405160e560020a62461bcd02815260206004820152601a60248201527f616c726561647920646f6e6520757365206465706f736974282900000000000060448201526064016103ec565b6109a561085e8587611b7e565b6008805474ff00000000000000000000000000000000000000001916740100000000000000000000000000000000000000001790556009546109f090600160a060020a031686611352565b600a546108aa90600160a060020a031685611352565b60606004805461043990611c09565b600554600090600160a060020a03163314610a455760405160e560020a62461bcd0281526004016103ec90611ace565b83620186a08111610a6b5760405160e560020a62461bcd0281526004016103ec90611a97565b6000610a7686610e04565b90506000610a8e61054d660110d9316ec00084611b7e565b905085821015610ae35760405160e560020a62461bcd02815260206004820152600d60248201527f5072696365206368616e6765640000000000000000000000000000000000000060448201526064016103ec565b610aed8183611b2b565b60066000828254610afe9190611b9d565b925050819055508660076000828254610b179190611b2b565b9091555050600854600954610b3991600160a060020a03918216911683610ff6565b60095461061490600160a060020a03168684610ff6565b336000818152600160209081526040808320600160a060020a038716845290915281205490919083811015610bf05760405160e560020a62461bcd02815260206004820152602560248201527f45524332303a2064656372656173656420616c6c6f77616e63652062656c6f7760448201527f207a65726f00000000000000000000000000000000000000000000000000000060648201526084016103ec565b610bfd8286868403610e84565b506001949350505050565b6000336104ca818585611110565b6005546000908190600160a060020a03163314610c485760405160e560020a62461bcd0281526004016103ec90611ace565b600160a060020a0383166000908152602081905260408120549050600081610c6f60025490565b610c799190611b43565b9050600081600654610c8b9190611b43565b9050600082600754610c9d9190611b43565b919550909350505050915091565b600554600090600160a060020a03163314610cdb5760405160e560020a62461bcd0281526004016103ec90611ace565b600160a060020a03831660009081526020819052604090205482811015610d475760405160e560020a62461bcd02815260206004820152600f60248201527f42616c616e636520746f6f206c6f77000000000000000000000000000000000060448201526064016103ec565b6000610d5284610fe2565b600254610d5f9190611b43565b9050600081610d6f600654611330565b610d799190611b43565b9050600082610d89600754611330565b610d939190611b43565b90508160066000828254610da79190611b9d565b925050819055508060076000828254610dc09190611b9d565b90915550610dd09050868861140c565b600554600954610ded91600160a060020a03918216911684610ff6565b600a5461061490600160a060020a03168883610ff6565b600554600090600160a060020a03163314610e345760405160e560020a62461bcd0281526004016103ec90611ace565b61042282600754610e459190611b2b565b6006546104139085611b7e565b6000610422610e70660aa87bee538000670de0b6b3a7640000611bb4565b61054d9067ffffffffffffffff1684611b7e565b600160a060020a038316610f025760405160e560020a62461bcd028152602060048201526024808201527f45524332303a20617070726f76652066726f6d20746865207a65726f2061646460448201527f726573730000000000000000000000000000000000000000000000000000000060648201526084016103ec565b600160a060020a038216610f815760405160e560020a62461bcd02815260206004820152602260248201527f45524332303a20617070726f766520746f20746865207a65726f20616464726560448201527f737300000000000000000000000000000000000000000000000000000000000060648201526084016103ec565b600160a060020a0383811660008181526001602090815260408083209487168084529482529182902085905590518481527f8c5be1e5ebec7d5bd14f71427d1e84f3dd0314c0f7b2291e5b200ac8c7c3b925910160405180910390a3505050565b6000610422670de0b6b3a764000083611b43565b60408051600160a060020a038416602482015260448082018490528251808303909101815260649091019091526020810180517bffffffffffffffffffffffffffffffffffffffffffffffffffffffff167fa9059cbb00000000000000000000000000000000000000000000000000000000179052611076908490611416565b505050565b600160a060020a03838116600090815260016020908152604080832093861683529290522054600019811461110a57818110156110fd5760405160e560020a62461bcd02815260206004820152601d60248201527f45524332303a20696e73756666696369656e7420616c6c6f77616e636500000060448201526064016103ec565b61110a8484848403610e84565b50505050565b600160a060020a03831661118f5760405160e560020a62461bcd02815260206004820152602560248201527f45524332303a207472616e736665722066726f6d20746865207a65726f20616460448201527f647265737300000000000000000000000000000000000000000000000000000060648201526084016103ec565b600160a060020a03821661120e5760405160e560020a62461bcd02815260206004820152602360248201527f45524332303a207472616e7366657220746f20746865207a65726f206164647260448201527f657373000000000000000000000000000000000000000000000000000000000060648201526084016103ec565b600160a060020a038316600090815260208190526040902054818110156112a05760405160e560020a62461bcd02815260206004820152602660248201527f45524332303a207472616e7366657220616d6f756e742065786365656473206260448201527f616c616e6365000000000000000000000000000000000000000000000000000060648201526084016103ec565b600160a060020a038085166000908152602081905260408082208585039055918516815290812080548492906112d7908490611b2b565b9250508190555082600160a060020a031684600160a060020a03167fddf252ad1be2c89b69c2b068fc378daa952ba7f163c4a11628f55a4df523b3ef8460405161132391815260200190565b60405180910390a361110a565b6000610422670de0b6b3a764000083611b7e565b61134e81836114fe565b5050565b620186a08110156113a85760405160e560020a62461bcd02815260206004820152601360248201527f53656e7420616d6f756e7420746f6f206c6f770000000000000000000000000060448201526064016103ec565b600954600160a060020a03838116911614156113db5780600660008282546113d09190611b2b565b9091555061134e9050565b600a54600160a060020a038381169116141561134e5780600760008282546114039190611b2b565b90915550505050565b61134e81836115e0565b600061146b826040518060400160405280602081526020017f5361666545524332303a206c6f772d6c6576656c2063616c6c206661696c656481525085600160a060020a031661176b9092919063ffffffff16565b805190915015611076578080602001905181019061148991906119d8565b6110765760405160e560020a62461bcd02815260206004820152602a60248201527f5361666545524332303a204552433230206f7065726174696f6e20646964206e60448201527f6f7420737563636565640000000000000000000000000000000000000000000060648201526084016103ec565b600160a060020a0382166115575760405160e560020a62461bcd02815260206004820152601f60248201527f45524332303a206d696e7420746f20746865207a65726f20616464726573730060448201526064016103ec565b80600260008282546115699190611b2b565b9091555050600160a060020a03821660009081526020819052604081208054839290611596908490611b2b565b9091555050604051818152600160a060020a038316906000907fddf252ad1be2c89b69c2b068fc378daa952ba7f163c4a11628f55a4df523b3ef9060200160405180910390a35050565b600160a060020a03821661165f5760405160e560020a62461bcd02815260206004820152602160248201527f45524332303a206275726e2066726f6d20746865207a65726f2061646472657360448201527f730000000000000000000000000000000000000000000000000000000000000060648201526084016103ec565b600160a060020a038216600090815260208190526040902054818110156116f15760405160e560020a62461bcd02815260206004820152602260248201527f45524332303a206275726e20616d6f756e7420657863656564732062616c616e60448201527f636500000000000000000000000000000000000000000000000000000000000060648201526084016103ec565b600160a060020a0383166000908152602081905260408120838303905560028054849290611720908490611b9d565b9091555050604051828152600090600160a060020a038516907fddf252ad1be2c89b69c2b068fc378daa952ba7f163c4a11628f55a4df523b3ef9060200160405180910390a3505050565b606061177a8484600085611782565b949350505050565b606030318311156117fe5760405160e560020a62461bcd02815260206004820152602660248201527f416464726573733a20696e73756666696369656e742062616c616e636520666f60448201527f722063616c6c000000000000000000000000000000000000000000000000000060648201526084016103ec565b600160a060020a0385163b6118585760405160e560020a62461bcd02815260206004820152601d60248201527f416464726573733a2063616c6c20746f206e6f6e2d636f6e747261637400000060448201526064016103ec565b60008086600160a060020a031685876040516118749190611a48565b60006040518083038185875af1925050503d80600081146118b1576040519150601f19603f3d011682016040523d82523d6000602084013e6118b6565b606091505b50915091506118c68282866118d1565b979650505050505050565b606083156118e057508161063d565b8251156118f05782518084602001fd5b8160405160e560020a62461bcd0281526004016103ec9190611a64565b8035600160a060020a038116811461042557600080fd5b60006020828403121561193657600080fd5b61063d8261190d565b6000806040838503121561195257600080fd5b61195b8361190d565b91506119696020840161190d565b90509250929050565b60008060006060848603121561198757600080fd5b6119908461190d565b925061199e6020850161190d565b9150604084013590509250925092565b600080604083850312156119c157600080fd5b6119ca8361190d565b946020939093013593505050565b6000602082840312156119ea57600080fd5b8151801515811461063d57600080fd5b600060208284031215611a0c57600080fd5b5035919050565b600080600060608486031215611a2857600080fd5b8335925060208401359150611a3f6040850161190d565b90509250925092565b60008251611a5a818460208701611bdd565b9190910192915050565b6020815260008251806020840152611a83816040850160208701611bdd565b601f01601f19169190910160400192915050565b6020808252601e908201527f616d6f756e74206c6f776572207468616e206d696e2e20616d6f756e74210000604082015260600190565b60208082526025908201527f44656e6965642063616e206f6e6c79206265206163636573736564206279207260408201527f6f75746572000000000000000000000000000000000000000000000000000000606082015260800190565b60008219821115611b3e57611b3e611c5d565b500190565b600082611b79577f4e487b7100000000000000000000000000000000000000000000000000000000600052601260045260246000fd5b500490565b6000816000190483118215151615611b9857611b98611c5d565b500290565b600082821015611baf57611baf611c5d565b500390565b600067ffffffffffffffff83811690831681811015611bd557611bd5611c5d565b039392505050565b60005b83811015611bf8578181015183820152602001611be0565b8381111561110a5750506000910152565b600281046001821680611c1d57607f821691505b60208210811415611c57577f4e487b7100000000000000000000000000000000000000000000000000000000600052602260045260246000fd5b50919050565b7f4e487b7100000000000000000000000000000000000000000000000000000000600052601160045260246000fdfea2646970667358221220b1cd64208a032ad9b13328f2f1b5c6197e9c7c09ee2bdf1560c9239a7ed4c7fc64736f6c63430008070033ba18ff9577d9e4fffac670d5a6f1c6c393bc449586b5586292d7a255d70ffa53a2646970667358221220a195110f2cc203206f154e264c79c14c15a47229b3e7df64f4540c30a21c366a64736f6c63430008070033",
  "immutableReferences": {},
  "source": "// SPDX-License-Identifier: MIT\npragma solidity ^0.8.7;\n\nimport \"../Core/JupyterCoreV1.sol\";\nimport \"./IJupyterRouterV1.sol\";\nimport \"../../TestTokens/IWETH.sol\";\n\nlibrary JupyterHelper {}\n\ncontract JupyterRouterV1 is IJupyterRouterV1 {\n    using SafeERC20 for IERC20;\n    modifier existingPair(address token0Address, address token1Address) {\n        require(\n            address(pairs[token0Address][token1Address]) != address(0),\n            \"Pair doesnt exist\"\n        );\n        _;\n    }\n\n    modifier ensure(uint256 deadline) {\n        require(deadline >= block.timestamp, \"Deadline reached\");\n        _;\n    }\n\n    event CreateLiquidityPool(address token, address pool, uint256 rate);\n    event AddLiquidity(\n        address pool,\n        uint256 token0Balance,\n        uint256 token1Balance,\n        uint256 lpTotalSupply\n    );\n    event RemoveLiquidity(\n        address pool,\n        uint256 token0Balance,\n        uint256 token1Balance,\n        uint256 lpTotalSupply\n    );\n\n    event ClosePool(address pool);\n\n    event ExchangeTokens(\n        address from,\n        address to,\n        uint256 fromAmount,\n        uint256 toAmount,\n        uint256 rate\n    );\n\n    mapping(address => mapping(address => JupyterCoreV1)) public pairs;\n    address vaultAddress;\n    address wbnb;\n\n    constructor(address _protocolAddress, address _wbnb) {\n        //require(_protocolAddress != address(0), \"Zero address not allowed\");\n        vaultAddress = _protocolAddress;\n        wbnb = _wbnb;\n    }\n\n    receive() external payable {\n        require(msg.sender == wbnb);\n    }\n\n    function withdrawAndTransferETH(uint256 _amount, address _to) private {\n        IWETH(wbnb).withdraw(_amount);\n        payable(_to).transfer(_amount);\n    }\n\n    function depositAndTransferWETH(address pair, uint256 value) private {\n        IWETH(wbnb).deposit{value: value}();\n        IERC20(wbnb).transfer(pair, value);\n    }\n\n    function createLiquidityPool(\n        address _token1Address,\n        uint256 _token1Amount,\n        uint256 deadline\n    ) external payable override ensure(deadline) {\n        require(\n            address(pairs[wbnb][_token1Address]) == address(0),\n            \"Pair exists\"\n        );\n\n        JupyterCoreV1 newPool = new JupyterCoreV1(\n            wbnb,\n            _token1Address,\n            vaultAddress\n        );\n        pairs[address(wbnb)][_token1Address] = newPool;\n        pairs[_token1Address][address(wbnb)] = newPool;\n\n        newPool.initialDeposit(msg.value, _token1Amount, msg.sender);\n        IERC20(_token1Address).safeTransferFrom(\n            msg.sender,\n            address(newPool),\n            _token1Amount\n        );\n\n        depositAndTransferWETH(address(newPool), msg.value);\n\n        emit CreateLiquidityPool(\n            _token1Address,\n            address(newPool),\n            newPool.rate()\n        );\n        emit AddLiquidity(\n            address(newPool),\n            newPool.token0Balance(),\n            newPool.token1Balance(),\n            newPool.totalSupply()\n        );\n    }\n\n    function addLiquidity(\n        address _token1Address,\n        uint256 _token1Amount,\n        uint256 deadline\n    ) external payable override ensure(deadline) {\n        JupyterCoreV1 pair = pairs[wbnb][_token1Address];\n        pair.deposit(msg.value, _token1Amount, msg.sender);\n        depositAndTransferWETH(address(pair), msg.value);\n        IERC20(pair.token1()).safeTransferFrom(\n            msg.sender,\n            address(pair),\n            _token1Amount\n        );\n\n        emit AddLiquidity(\n            address(pair),\n            pair.token0Balance(),\n            pair.token1Balance(),\n            pair.totalSupply()\n        );\n    }\n\n    function removeLiquidity(\n        address _token1Address,\n        uint256 _withdrawalAmount,\n        uint256 deadline\n    ) external override ensure(deadline) {\n        JupyterCoreV1 pair = _existingPair(_token1Address);\n        uint256 bnbToWithdraw = pair.withdraw(msg.sender, _withdrawalAmount);\n        withdrawAndTransferETH(bnbToWithdraw, msg.sender);\n\n        emit RemoveLiquidity(\n            address(pair),\n            pair.token0Balance(),\n            pair.token1Balance(),\n            pair.totalSupply()\n        );\n        if (pair.token0Balance() == 0) {\n            emit ClosePool(address(pair));\n            pair.closePool();\n            delete pairs[wbnb][_token1Address];\n            //TODO: delete reversed pair [_token1Address][wbnb]\n        }\n    }\n\n    function swapETHToToken(\n        address _tokenAddress,\n        uint256 _tokenAmountMin,\n        uint256 deadline\n    ) external payable override ensure(deadline) {\n        JupyterCoreV1 pair = _existingPair(_tokenAddress);\n        uint256 received = pair.swapToken0ToToken1(\n            msg.value,\n            _tokenAmountMin,\n            msg.sender\n        );\n        depositAndTransferWETH(address(pair), msg.value);\n        emit ExchangeTokens(\n            wbnb,\n            _tokenAddress,\n            msg.value,\n            received,\n            pair.rate()\n        );\n        //emit rateChanged(address(pair), pair.rate());\n    }\n\n    function swapTokenToETH(\n        address _tokenAddress,\n        uint256 _tokenAmount,\n        uint256 _ethAmountMin,\n        uint256 deadline\n    ) external payable override ensure(deadline) {\n        JupyterCoreV1 pair = _existingPair(_tokenAddress);\n        uint256 withdrawalAmount = pair.swapToken1ToToken0(\n            _tokenAmount,\n            _ethAmountMin,\n            address(this)\n        );\n\n        IERC20(_tokenAddress).safeTransferFrom(\n            msg.sender,\n            address(pair),\n            _tokenAmount\n        );\n        withdrawAndTransferETH(withdrawalAmount, msg.sender);\n\n        emit ExchangeTokens(\n            _tokenAddress,\n            wbnb,\n            _tokenAmount,\n            withdrawalAmount,\n            pair.rate()\n        );\n    }\n\n    function getToken1AmountFromToken0Amount(\n        address _token1Address,\n        uint256 amount\n    ) external view override returns (uint256) {\n        JupyterCoreV1 pair = _existingPair(_token1Address);\n        return pair.t1FromT0(amount);\n    }\n\n    function getToken0AmountFromToken1Amount(\n        address _token1Address,\n        uint256 amount\n    ) external view override returns (uint256) {\n        JupyterCoreV1 pair = _existingPair(_token1Address);\n        return pair.t0FromT1(amount);\n    }\n\n    function getRate(address token1Address)\n        external\n        view\n        existingPair(wbnb, token1Address)\n        returns (uint256)\n    {\n        return pairs[wbnb][token1Address].rate();\n    }\n\n    function getBalance(address token1Address)\n        external\n        view\n        existingPair(wbnb, token1Address)\n        returns (uint256)\n    {\n        return pairs[wbnb][token1Address].balanceOf(msg.sender);\n    }\n\n    function _existingPair(address _token1Address)\n        internal\n        view\n        returns (JupyterCoreV1)\n    {\n        //require(\n        //    address(pairs[wbnb][_token1Address]) != address(0),\n        //    \"Pair does not exist\"\n        //);\n        return pairs[wbnb][_token1Address];\n    }\n\n    function getDepositAmount(address _token1Address, uint256 _amount)\n        external\n        view\n        override\n        returns (uint256)\n    {\n        JupyterCoreV1 pair = _existingPair(_token1Address);\n        return (_amount * 10**18) / pair.rate();\n    }\n\n    function getLPTotalSupply(address _token1Address)\n        external\n        view\n        override\n        returns (uint256)\n    {\n        JupyterCoreV1 pair = _existingPair(_token1Address);\n        return pair.totalSupply();\n    }\n\n    function getTokenBalances(address _token1Address)\n        external\n        view\n        override\n        returns (uint256, uint256)\n    {\n        return (\n            IERC20(wbnb).balanceOf(msg.sender),\n            IERC20(_token1Address).balanceOf(msg.sender)\n        );\n    }\n\n    function getPoolBalances(address _token1Address)\n        external\n        view\n        returns (uint256, uint256)\n    {\n        JupyterCoreV1 pair = _existingPair(_token1Address);\n        return (\n            pair.token0Balance(),\n            pair.token1Balance()\n            //IERC20(wbnb).balanceOf(address(pair)),\n            //IERC20(_token1Address).balanceOf(address(pair))\n        );\n    }\n\n    //--------------DEV\n    function swapTokens(\n        address _fromToken,\n        address _toToken,\n        uint256 _fromAmount,\n        uint256 _toMinAmount,\n        uint256 deadline\n    ) public {\n        require(_fromToken != wbnb, \"Function does not swap bnb\");\n        JupyterCoreV1 token0Wbnb = _existingPair(_fromToken);\n        require(address(token0Wbnb) != address(0x00), \"Token not listed\");\n        JupyterCoreV1 token1Wbnb = _existingPair(_toToken);\n        require(address(token1Wbnb) != address(0x00), \"Token not listed\");\n\n        //From\n        uint256 wbnbMinAmount = token0Wbnb.t0FromT1(_fromAmount);\n        uint256 wbnbAmount = token0Wbnb.swapToken1ToToken0(\n            _fromAmount,\n            wbnbMinAmount,\n            address(token1Wbnb)\n        );\n\n        //require(toAmountMin >= _toMinAmount,\"Price changed\");\n        uint256 receivedAmount = token1Wbnb.swapToken0ToToken1(\n            wbnbAmount,\n            _toMinAmount,\n            address(this)\n        );\n\n        IERC20(_fromToken).safeTransferFrom(\n            msg.sender,\n            address(token0Wbnb),\n            _fromAmount\n        );\n        //IERC20(wbnb).safeTransfer(address(token1Wbnb), wbnbAmount);\n        //require(receivedAmount >= _toMinAmount,\"Price changed\");\n        IERC20(_toToken).safeTransfer(msg.sender, receivedAmount);\n\n        emit ExchangeTokens(\n            _fromToken,\n            wbnb,\n            _fromAmount,\n            wbnbAmount,\n            token0Wbnb.rate()\n        );\n        emit ExchangeTokens(\n            wbnb,\n            _toToken,\n            wbnbAmount,\n            receivedAmount,\n            token1Wbnb.rate()\n        );\n    }\n\n    function getTokenToTokenQuote(\n        address _fromToken,\n        address _toToken,\n        uint256 _fromAmount\n    ) public view returns (uint256) {\n        require(_fromToken != wbnb, \"Function does not swap bnb\");\n        JupyterCoreV1 token0Wbnb = _existingPair(_fromToken);\n        require(address(token0Wbnb) != address(0x00), \"Token not listed\");\n        JupyterCoreV1 token1Wbnb = _existingPair(_toToken);\n        require(address(token1Wbnb) != address(0x00), \"Token not listed\");\n\n        //From\n        uint256 wbnbAmount = token0Wbnb.t0FromT1(_fromAmount);\n\n        //To\n        uint256 toAmountMin = token1Wbnb.t1FromT0(wbnbAmount);\n        return toAmountMin;\n    }\n\n    //---------------TESTING REMOVE BEFORE DEPLOY\n\n    function getAddress(address _token1Address)\n        external\n        view\n        returns (address)\n    {\n        JupyterCoreV1 pair = _existingPair(_token1Address);\n        return address(pair);\n    }\n}\n",
  "sourcePath": "/home/olio/Desktop/JPN-GITHUB/Jupyter-Swap/Contracts/contracts/V1/Router/JupyterRouterV1.sol",
  "compiler": {
    "name": "solc",
    "version": "0.8.7+commit.e28d00a7.Emscripten.clang"
  },
  "schemaVersion": "3.4.6",
  "updatedAt": "2022-06-04T15:44:37.292Z",
  "networkType": "ethereum",
  "devdoc": {
    "kind": "dev",
    "methods": {},
    "version": 1
  },
  "userdoc": {
    "kind": "user",
    "methods": {},
    "version": 1
  }
}