{
  "contractName": "JupyterCoreV1",
  "abi": [
    {
      "inputs": [
        {
          "internalType": "address",
          "name": "_token0",
          "type": "address"
        },
        {
          "internalType": "address",
          "name": "_token1",
          "type": "address"
        },
        {
          "internalType": "address",
          "name": "_protocolAddress",
          "type": "address"
        }
      ],
      "stateMutability": "nonpayable",
      "type": "constructor"
    },
    {
      "anonymous": false,
      "inputs": [
        {
          "indexed": true,
          "internalType": "address",
          "name": "owner",
          "type": "address"
        },
        {
          "indexed": true,
          "internalType": "address",
          "name": "spender",
          "type": "address"
        },
        {
          "indexed": false,
          "internalType": "uint256",
          "name": "value",
          "type": "uint256"
        }
      ],
      "name": "Approval",
      "type": "event"
    },
    {
      "anonymous": false,
      "inputs": [
        {
          "indexed": true,
          "internalType": "address",
          "name": "from",
          "type": "address"
        },
        {
          "indexed": true,
          "internalType": "address",
          "name": "to",
          "type": "address"
        },
        {
          "indexed": false,
          "internalType": "uint256",
          "name": "value",
          "type": "uint256"
        }
      ],
      "name": "Transfer",
      "type": "event"
    },
    {
      "inputs": [
        {
          "internalType": "address",
          "name": "owner",
          "type": "address"
        },
        {
          "internalType": "address",
          "name": "spender",
          "type": "address"
        }
      ],
      "name": "allowance",
      "outputs": [
        {
          "internalType": "uint256",
          "name": "",
          "type": "uint256"
        }
      ],
      "stateMutability": "view",
      "type": "function",
      "constant": true
    },
    {
      "inputs": [
        {
          "internalType": "address",
          "name": "spender",
          "type": "address"
        },
        {
          "internalType": "uint256",
          "name": "amount",
          "type": "uint256"
        }
      ],
      "name": "approve",
      "outputs": [
        {
          "internalType": "bool",
          "name": "",
          "type": "bool"
        }
      ],
      "stateMutability": "nonpayable",
      "type": "function"
    },
    {
      "inputs": [
        {
          "internalType": "address",
          "name": "account",
          "type": "address"
        }
      ],
      "name": "balanceOf",
      "outputs": [
        {
          "internalType": "uint256",
          "name": "",
          "type": "uint256"
        }
      ],
      "stateMutability": "view",
      "type": "function",
      "constant": true
    },
    {
      "inputs": [],
      "name": "decimals",
      "outputs": [
        {
          "internalType": "uint8",
          "name": "",
          "type": "uint8"
        }
      ],
      "stateMutability": "view",
      "type": "function",
      "constant": true
    },
    {
      "inputs": [
        {
          "internalType": "address",
          "name": "spender",
          "type": "address"
        },
        {
          "internalType": "uint256",
          "name": "subtractedValue",
          "type": "uint256"
        }
      ],
      "name": "decreaseAllowance",
      "outputs": [
        {
          "internalType": "bool",
          "name": "",
          "type": "bool"
        }
      ],
      "stateMutability": "nonpayable",
      "type": "function"
    },
    {
      "inputs": [
        {
          "internalType": "address",
          "name": "spender",
          "type": "address"
        },
        {
          "internalType": "uint256",
          "name": "addedValue",
          "type": "uint256"
        }
      ],
      "name": "increaseAllowance",
      "outputs": [
        {
          "internalType": "bool",
          "name": "",
          "type": "bool"
        }
      ],
      "stateMutability": "nonpayable",
      "type": "function"
    },
    {
      "inputs": [],
      "name": "name",
      "outputs": [
        {
          "internalType": "string",
          "name": "",
          "type": "string"
        }
      ],
      "stateMutability": "view",
      "type": "function",
      "constant": true
    },
    {
      "inputs": [],
      "name": "symbol",
      "outputs": [
        {
          "internalType": "string",
          "name": "",
          "type": "string"
        }
      ],
      "stateMutability": "view",
      "type": "function",
      "constant": true
    },
    {
      "inputs": [],
      "name": "token0",
      "outputs": [
        {
          "internalType": "contract IERC20",
          "name": "",
          "type": "address"
        }
      ],
      "stateMutability": "view",
      "type": "function",
      "constant": true
    },
    {
      "inputs": [],
      "name": "token0Balance",
      "outputs": [
        {
          "internalType": "uint256",
          "name": "",
          "type": "uint256"
        }
      ],
      "stateMutability": "view",
      "type": "function",
      "constant": true
    },
    {
      "inputs": [],
      "name": "token1",
      "outputs": [
        {
          "internalType": "contract IERC20",
          "name": "",
          "type": "address"
        }
      ],
      "stateMutability": "view",
      "type": "function",
      "constant": true
    },
    {
      "inputs": [],
      "name": "token1Balance",
      "outputs": [
        {
          "internalType": "uint256",
          "name": "",
          "type": "uint256"
        }
      ],
      "stateMutability": "view",
      "type": "function",
      "constant": true
    },
    {
      "inputs": [],
      "name": "totalSupply",
      "outputs": [
        {
          "internalType": "uint256",
          "name": "",
          "type": "uint256"
        }
      ],
      "stateMutability": "view",
      "type": "function",
      "constant": true
    },
    {
      "inputs": [
        {
          "internalType": "address",
          "name": "to",
          "type": "address"
        },
        {
          "internalType": "uint256",
          "name": "amount",
          "type": "uint256"
        }
      ],
      "name": "transfer",
      "outputs": [
        {
          "internalType": "bool",
          "name": "",
          "type": "bool"
        }
      ],
      "stateMutability": "nonpayable",
      "type": "function"
    },
    {
      "inputs": [
        {
          "internalType": "address",
          "name": "from",
          "type": "address"
        },
        {
          "internalType": "address",
          "name": "to",
          "type": "address"
        },
        {
          "internalType": "uint256",
          "name": "amount",
          "type": "uint256"
        }
      ],
      "name": "transferFrom",
      "outputs": [
        {
          "internalType": "bool",
          "name": "",
          "type": "bool"
        }
      ],
      "stateMutability": "nonpayable",
      "type": "function"
    },
    {
      "inputs": [
        {
          "internalType": "uint256",
          "name": "_token0Amount",
          "type": "uint256"
        },
        {
          "internalType": "uint256",
          "name": "_token1Amount",
          "type": "uint256"
        },
        {
          "internalType": "address",
          "name": "from",
          "type": "address"
        }
      ],
      "name": "initialDeposit",
      "outputs": [],
      "stateMutability": "nonpayable",
      "type": "function"
    },
    {
      "inputs": [
        {
          "internalType": "uint256",
          "name": "_token0Amount",
          "type": "uint256"
        },
        {
          "internalType": "uint256",
          "name": "_token1Amount",
          "type": "uint256"
        },
        {
          "internalType": "address",
          "name": "from",
          "type": "address"
        }
      ],
      "name": "deposit",
      "outputs": [],
      "stateMutability": "nonpayable",
      "type": "function"
    },
    {
      "inputs": [
        {
          "internalType": "address",
          "name": "from",
          "type": "address"
        },
        {
          "internalType": "uint256",
          "name": "_withdrawalAmount",
          "type": "uint256"
        }
      ],
      "name": "withdraw",
      "outputs": [
        {
          "internalType": "uint256",
          "name": "",
          "type": "uint256"
        }
      ],
      "stateMutability": "nonpayable",
      "type": "function"
    },
    {
      "inputs": [],
      "name": "closePool",
      "outputs": [],
      "stateMutability": "nonpayable",
      "type": "function"
    },
    {
      "inputs": [
        {
          "internalType": "uint256",
          "name": "_token0Amount",
          "type": "uint256"
        },
        {
          "internalType": "uint256",
          "name": "_token1AmountMin",
          "type": "uint256"
        },
        {
          "internalType": "address",
          "name": "from",
          "type": "address"
        }
      ],
      "name": "swapToken0ToToken1",
      "outputs": [
        {
          "internalType": "uint256",
          "name": "",
          "type": "uint256"
        }
      ],
      "stateMutability": "nonpayable",
      "type": "function"
    },
    {
      "inputs": [
        {
          "internalType": "uint256",
          "name": "_token1Amount",
          "type": "uint256"
        },
        {
          "internalType": "uint256",
          "name": "_token0AmountMin",
          "type": "uint256"
        },
        {
          "internalType": "address",
          "name": "from",
          "type": "address"
        }
      ],
      "name": "swapToken1ToToken0",
      "outputs": [
        {
          "internalType": "uint256",
          "name": "",
          "type": "uint256"
        }
      ],
      "stateMutability": "nonpayable",
      "type": "function"
    },
    {
      "inputs": [
        {
          "internalType": "uint256",
          "name": "tokenAmount",
          "type": "uint256"
        }
      ],
      "name": "t1FromT0",
      "outputs": [
        {
          "internalType": "uint256",
          "name": "",
          "type": "uint256"
        }
      ],
      "stateMutability": "view",
      "type": "function",
      "constant": true
    },
    {
      "inputs": [
        {
          "internalType": "uint256",
          "name": "tokenAmount",
          "type": "uint256"
        }
      ],
      "name": "t0FromT1",
      "outputs": [
        {
          "internalType": "uint256",
          "name": "",
          "type": "uint256"
        }
      ],
      "stateMutability": "view",
      "type": "function",
      "constant": true
    },
    {
      "inputs": [],
      "name": "rate",
      "outputs": [
        {
          "internalType": "uint256",
          "name": "",
          "type": "uint256"
        }
      ],
      "stateMutability": "view",
      "type": "function",
      "constant": true
    },
    {
      "inputs": [
        {
          "internalType": "address",
          "name": "from",
          "type": "address"
        }
      ],
      "name": "getBalances",
      "outputs": [
        {
          "internalType": "uint256",
          "name": "",
          "type": "uint256"
        },
        {
          "internalType": "uint256",
          "name": "",
          "type": "uint256"
        }
      ],
      "stateMutability": "view",
      "type": "function",
      "constant": true
    }
  ],
  "bytecode": "0x60806040526008805460a060020a60ff02191690553480156200002157600080fd5b506040516200200238038062002002833981016040819052620000449162000290565b604080518082018252600581527f4a502d4c5000000000000000000000000000000000000000000000000000000060208083019182528351808501909452601184527f4a757079746572204c6971756964697479000000000000000000000000000000908401528151919291620000be91600391620001cd565b508051620000d4906004906020840190620001cd565b505060058054600160a060020a0319163317905550600160a060020a038316158015906200010a5750600160a060020a03821615155b80156200011f5750600160a060020a03811615155b6200018a576040517f08c379a000000000000000000000000000000000000000000000000000000000815260206004820152601860248201527f5a65726f2061646472657373206e6f7420616c6c6f7765640000000000000000604482015260640160405180910390fd5b60098054600160a060020a03948516600160a060020a031991821617909155600a8054938516938216939093179092556008805491909316911617905562000330565b828054620001db90620002da565b90600052602060002090601f016020900481019282620001ff57600085556200024a565b82601f106200021a57805160ff19168380011785556200024a565b828001600101855582156200024a579182015b828111156200024a5782518255916020019190600101906200022d565b50620002589291506200025c565b5090565b5b808211156200025857600081556001016200025d565b8051600160a060020a03811681146200028b57600080fd5b919050565b600080600060608486031215620002a657600080fd5b620002b18462000273565b9250620002c16020850162000273565b9150620002d16040850162000273565b90509250925092565b600281046001821680620002ef57607f821691505b602082108114156200032a577f4e487b7100000000000000000000000000000000000000000000000000000000600052602260045260246000fd5b50919050565b611cc280620003406000396000f3fe608060405234801561001057600080fd5b5060043610610190576000357c01000000000000000000000000000000000000000000000000000000009004806370a08231116100fb578063a9059cbb116100b4578063d21220a71161008e578063d21220a71461034a578063dd62ed3e1461035d578063f3fef3a314610396578063f405cfe2146103a957600080fd5b8063a9059cbb14610306578063b9ffa6a814610319578063c84aae171461032257600080fd5b806370a08231146102895780638dbdbe6d146102b2578063909665aa146102c557806395d89b41146102d857806399c91cd0146102e0578063a457c2d7146102f357600080fd5b806323b872dd1161014d57806323b872dd146102395780632c4e722e1461024c578063313ce56714610254578063395093511461026357806363fcefda1461027657806366805de51461027f57600080fd5b8063042b02971461019557806306fdde03146101bb578063095ea7b3146101d05780630dfe1681146101f357806318160ddd1461021e578063203668e014610226575b600080fd5b6101a86101a33660046119fa565b6103bc565b6040519081526020015b60405180910390f35b6101c361042a565b6040516101b29190611a64565b6101e36101de3660046119ae565b6104bc565b60405190151581526020016101b2565b60095461020690600160a060020a031681565b604051600160a060020a0390911681526020016101b2565b6002546101a8565b6101a8610234366004611a13565b6104d4565b6101e3610247366004611972565b61061e565b6101a8610644565b604051602481526020016101b2565b6101e36102713660046119ae565b610691565b6101a860065481565b6102876106d0565b005b6101a8610297366004611924565b600160a060020a031660009081526020819052604090205490565b6102876102c0366004611a13565b61071d565b6102876102d3366004611a13565b6108b1565b6101c3610a06565b6101a86102ee366004611a13565b610a15565b6101e36103013660046119ae565b610b50565b6101e36103143660046119ae565b610c08565b6101a860075481565b610335610330366004611924565b610c16565b604080519283526020830191909152016101b2565b600a5461020690600160a060020a031681565b6101a861036b36600461193f565b600160a060020a03918216600090815260016020908152604080832093909416825291909152205490565b6101a86103a43660046119ae565b610cab565b6101a86103b73660046119fa565b610e04565b600554600090600160a060020a031633146103f55760405160e560020a62461bcd0281526004016103ec90611ace565b60405180910390fd5b610422826006546104069190611b2b565b6007546104139085611b7e565b61041d9190611b43565b610e52565b90505b919050565b60606003805461043990611c09565b80601f016020809104026020016040519081016040528092919081815260200182805461046590611c09565b80156104b25780601f10610487576101008083540402835291602001916104b2565b820191906000526020600020905b81548152906001019060200180831161049557829003601f168201915b5050505050905090565b6000336104ca818585610e84565b5060019392505050565b600554600090600160a060020a031633146105045760405160e560020a62461bcd0281526004016103ec90611ace565b83620186a0811161052a5760405160e560020a62461bcd0281526004016103ec90611a97565b6000610535866103bc565b9050600061055261054d660110d9316ec00084611b7e565b610fe2565b9050858210156105a75760405160e560020a62461bcd02815260206004820152600d60248201527f5072696365206368616e6765640000000000000000000000000000000000000060448201526064016103ec565b6105b18183611b2b565b600760008282546105c29190611b9d565b9250508190555086600660008282546105db9190611b2b565b9091555050600854600a546105fd91600160a060020a03918216911683610ff6565b600a5461061490600160a060020a03168684610ff6565b5095945050505050565b60003361062c85828561107b565b610637858585611110565b60019150505b9392505050565b600554600090600160a060020a031633146106745760405160e560020a62461bcd0281526004016103ec90611ace565b600754610682600654611330565b61068c9190611b43565b905090565b336000818152600160209081526040808320600160a060020a03871684529091528120549091906104ca90829086906106cb908790611b2b565b610e84565b600554600160a060020a031633146106fd5760405160e560020a62461bcd0281526004016103ec90611ace565b600061070860025490565b1161071b57600854600160a060020a0316ff5b565b600554600160a060020a0316331461074a5760405160e560020a62461bcd0281526004016103ec90611ace565b82620186a081116107705760405160e560020a62461bcd0281526004016103ec90611a97565b82620186a081116107965760405160e560020a62461bcd0281526004016103ec90611a97565b61079e610644565b6107b26107ad876103e8611b2b565b611330565b6107bc9190611b43565b84111580156107eb57506107ce610644565b6107dd6107ad6103e888611b9d565b6107e79190611b43565b8410155b61083a5760405160e560020a62461bcd02815260206004820152601b60248201527f57726f6e6720616d6f756e74206f6620746f6b656e732073656e74000000000060448201526064016103ec565b6108648560065461084a60025490565b6108549190611b43565b61085e9190611b7e565b84611344565b600a5461089490600160a060020a031661087c610644565b61088588611330565b61088f9190611b43565b611352565b6009546108aa90600160a060020a031686611352565b5050505050565b600554600160a060020a031633146108de5760405160e560020a62461bcd0281526004016103ec90611ace565b82620186a081116109045760405160e560020a62461bcd0281526004016103ec90611a97565b82620186a0811161092a5760405160e560020a62461bcd0281526004016103ec90611a97565b60085474010000000000000000000000000000000000000000900460ff16156109985760405160e560020a62461bcd02815260206004820152601a60248201527f616c726561647920646f6e6520757365206465706f736974282900000000000060448201526064016103ec565b6109a561085e8587611b7e565b6008805474ff00000000000000000000000000000000000000001916740100000000000000000000000000000000000000001790556009546109f090600160a060020a031686611352565b600a546108aa90600160a060020a031685611352565b60606004805461043990611c09565b600554600090600160a060020a03163314610a455760405160e560020a62461bcd0281526004016103ec90611ace565b83620186a08111610a6b5760405160e560020a62461bcd0281526004016103ec90611a97565b6000610a7686610e04565b90506000610a8e61054d660110d9316ec00084611b7e565b905085821015610ae35760405160e560020a62461bcd02815260206004820152600d60248201527f5072696365206368616e6765640000000000000000000000000000000000000060448201526064016103ec565b610aed8183611b2b565b60066000828254610afe9190611b9d565b925050819055508660076000828254610b179190611b2b565b9091555050600854600954610b3991600160a060020a03918216911683610ff6565b60095461061490600160a060020a03168684610ff6565b336000818152600160209081526040808320600160a060020a038716845290915281205490919083811015610bf05760405160e560020a62461bcd02815260206004820152602560248201527f45524332303a2064656372656173656420616c6c6f77616e63652062656c6f7760448201527f207a65726f00000000000000000000000000000000000000000000000000000060648201526084016103ec565b610bfd8286868403610e84565b506001949350505050565b6000336104ca818585611110565b6005546000908190600160a060020a03163314610c485760405160e560020a62461bcd0281526004016103ec90611ace565b600160a060020a0383166000908152602081905260408120549050600081610c6f60025490565b610c799190611b43565b9050600081600654610c8b9190611b43565b9050600082600754610c9d9190611b43565b919550909350505050915091565b600554600090600160a060020a03163314610cdb5760405160e560020a62461bcd0281526004016103ec90611ace565b600160a060020a03831660009081526020819052604090205482811015610d475760405160e560020a62461bcd02815260206004820152600f60248201527f42616c616e636520746f6f206c6f77000000000000000000000000000000000060448201526064016103ec565b6000610d5284610fe2565b600254610d5f9190611b43565b9050600081610d6f600654611330565b610d799190611b43565b9050600082610d89600754611330565b610d939190611b43565b90508160066000828254610da79190611b9d565b925050819055508060076000828254610dc09190611b9d565b90915550610dd09050868861140c565b600554600954610ded91600160a060020a03918216911684610ff6565b600a5461061490600160a060020a03168883610ff6565b600554600090600160a060020a03163314610e345760405160e560020a62461bcd0281526004016103ec90611ace565b61042282600754610e459190611b2b565b6006546104139085611b7e565b6000610422610e70660aa87bee538000670de0b6b3a7640000611bb4565b61054d9067ffffffffffffffff1684611b7e565b600160a060020a038316610f025760405160e560020a62461bcd028152602060048201526024808201527f45524332303a20617070726f76652066726f6d20746865207a65726f2061646460448201527f726573730000000000000000000000000000000000000000000000000000000060648201526084016103ec565b600160a060020a038216610f815760405160e560020a62461bcd02815260206004820152602260248201527f45524332303a20617070726f766520746f20746865207a65726f20616464726560448201527f737300000000000000000000000000000000000000000000000000000000000060648201526084016103ec565b600160a060020a0383811660008181526001602090815260408083209487168084529482529182902085905590518481527f8c5be1e5ebec7d5bd14f71427d1e84f3dd0314c0f7b2291e5b200ac8c7c3b925910160405180910390a3505050565b6000610422670de0b6b3a764000083611b43565b60408051600160a060020a038416602482015260448082018490528251808303909101815260649091019091526020810180517bffffffffffffffffffffffffffffffffffffffffffffffffffffffff167fa9059cbb00000000000000000000000000000000000000000000000000000000179052611076908490611416565b505050565b600160a060020a03838116600090815260016020908152604080832093861683529290522054600019811461110a57818110156110fd5760405160e560020a62461bcd02815260206004820152601d60248201527f45524332303a20696e73756666696369656e7420616c6c6f77616e636500000060448201526064016103ec565b61110a8484848403610e84565b50505050565b600160a060020a03831661118f5760405160e560020a62461bcd02815260206004820152602560248201527f45524332303a207472616e736665722066726f6d20746865207a65726f20616460448201527f647265737300000000000000000000000000000000000000000000000000000060648201526084016103ec565b600160a060020a03821661120e5760405160e560020a62461bcd02815260206004820152602360248201527f45524332303a207472616e7366657220746f20746865207a65726f206164647260448201527f657373000000000000000000000000000000000000000000000000000000000060648201526084016103ec565b600160a060020a038316600090815260208190526040902054818110156112a05760405160e560020a62461bcd02815260206004820152602660248201527f45524332303a207472616e7366657220616d6f756e742065786365656473206260448201527f616c616e6365000000000000000000000000000000000000000000000000000060648201526084016103ec565b600160a060020a038085166000908152602081905260408082208585039055918516815290812080548492906112d7908490611b2b565b9250508190555082600160a060020a031684600160a060020a03167fddf252ad1be2c89b69c2b068fc378daa952ba7f163c4a11628f55a4df523b3ef8460405161132391815260200190565b60405180910390a361110a565b6000610422670de0b6b3a764000083611b7e565b61134e81836114fe565b5050565b620186a08110156113a85760405160e560020a62461bcd02815260206004820152601360248201527f53656e7420616d6f756e7420746f6f206c6f770000000000000000000000000060448201526064016103ec565b600954600160a060020a03838116911614156113db5780600660008282546113d09190611b2b565b9091555061134e9050565b600a54600160a060020a038381169116141561134e5780600760008282546114039190611b2b565b90915550505050565b61134e81836115e0565b600061146b826040518060400160405280602081526020017f5361666545524332303a206c6f772d6c6576656c2063616c6c206661696c656481525085600160a060020a031661176b9092919063ffffffff16565b805190915015611076578080602001905181019061148991906119d8565b6110765760405160e560020a62461bcd02815260206004820152602a60248201527f5361666545524332303a204552433230206f7065726174696f6e20646964206e60448201527f6f7420737563636565640000000000000000000000000000000000000000000060648201526084016103ec565b600160a060020a0382166115575760405160e560020a62461bcd02815260206004820152601f60248201527f45524332303a206d696e7420746f20746865207a65726f20616464726573730060448201526064016103ec565b80600260008282546115699190611b2b565b9091555050600160a060020a03821660009081526020819052604081208054839290611596908490611b2b565b9091555050604051818152600160a060020a038316906000907fddf252ad1be2c89b69c2b068fc378daa952ba7f163c4a11628f55a4df523b3ef9060200160405180910390a35050565b600160a060020a03821661165f5760405160e560020a62461bcd02815260206004820152602160248201527f45524332303a206275726e2066726f6d20746865207a65726f2061646472657360448201527f730000000000000000000000000000000000000000000000000000000000000060648201526084016103ec565b600160a060020a038216600090815260208190526040902054818110156116f15760405160e560020a62461bcd02815260206004820152602260248201527f45524332303a206275726e20616d6f756e7420657863656564732062616c616e60448201527f636500000000000000000000000000000000000000000000000000000000000060648201526084016103ec565b600160a060020a0383166000908152602081905260408120838303905560028054849290611720908490611b9d565b9091555050604051828152600090600160a060020a038516907fddf252ad1be2c89b69c2b068fc378daa952ba7f163c4a11628f55a4df523b3ef9060200160405180910390a3505050565b606061177a8484600085611782565b949350505050565b606030318311156117fe5760405160e560020a62461bcd02815260206004820152602660248201527f416464726573733a20696e73756666696369656e742062616c616e636520666f60448201527f722063616c6c000000000000000000000000000000000000000000000000000060648201526084016103ec565b600160a060020a0385163b6118585760405160e560020a62461bcd02815260206004820152601d60248201527f416464726573733a2063616c6c20746f206e6f6e2d636f6e747261637400000060448201526064016103ec565b60008086600160a060020a031685876040516118749190611a48565b60006040518083038185875af1925050503d80600081146118b1576040519150601f19603f3d011682016040523d82523d6000602084013e6118b6565b606091505b50915091506118c68282866118d1565b979650505050505050565b606083156118e057508161063d565b8251156118f05782518084602001fd5b8160405160e560020a62461bcd0281526004016103ec9190611a64565b8035600160a060020a038116811461042557600080fd5b60006020828403121561193657600080fd5b61063d8261190d565b6000806040838503121561195257600080fd5b61195b8361190d565b91506119696020840161190d565b90509250929050565b60008060006060848603121561198757600080fd5b6119908461190d565b925061199e6020850161190d565b9150604084013590509250925092565b600080604083850312156119c157600080fd5b6119ca8361190d565b946020939093013593505050565b6000602082840312156119ea57600080fd5b8151801515811461063d57600080fd5b600060208284031215611a0c57600080fd5b5035919050565b600080600060608486031215611a2857600080fd5b8335925060208401359150611a3f6040850161190d565b90509250925092565b60008251611a5a818460208701611bdd565b9190910192915050565b6020815260008251806020840152611a83816040850160208701611bdd565b601f01601f19169190910160400192915050565b6020808252601e908201527f616d6f756e74206c6f776572207468616e206d696e2e20616d6f756e74210000604082015260600190565b60208082526025908201527f44656e6965642063616e206f6e6c79206265206163636573736564206279207260408201527f6f75746572000000000000000000000000000000000000000000000000000000606082015260800190565b60008219821115611b3e57611b3e611c5d565b500190565b600082611b79577f4e487b7100000000000000000000000000000000000000000000000000000000600052601260045260246000fd5b500490565b6000816000190483118215151615611b9857611b98611c5d565b500290565b600082821015611baf57611baf611c5d565b500390565b600067ffffffffffffffff83811690831681811015611bd557611bd5611c5d565b039392505050565b60005b83811015611bf8578181015183820152602001611be0565b8381111561110a5750506000910152565b600281046001821680611c1d57607f821691505b60208210811415611c57577f4e487b7100000000000000000000000000000000000000000000000000000000600052602260045260246000fd5b50919050565b7f4e487b7100000000000000000000000000000000000000000000000000000000600052601160045260246000fdfea2646970667358221220b1cd64208a032ad9b13328f2f1b5c6197e9c7c09ee2bdf1560c9239a7ed4c7fc64736f6c63430008070033",
  "immutableReferences": {},
  "source": "// SPDX-License-Identifier: MIT\npragma solidity ^0.8.7;\n\nimport \"./JupyterLiquidityTokenV1.sol\";\nimport \"./JupyterCoreHelperV1.sol\";\nimport \"./IJupyterCoreV1.sol\";\n\ncontract JupyterCoreV1 is\n    IJupyterCoreV1,\n    JupyterCoreHelperV1,\n    JupyterLiquidityTokenV1\n{\n    using SafeERC20 for IERC20;\n    address Router;\n    modifier minValue(uint256 _amount) {\n        require(_amount > _minAmount, \"amount lower than min. amount!\");\n        _;\n    }\n\n    modifier calledByRouter() {\n        require(msg.sender == Router, \"Denied can only be accessed by router\");\n        _;\n    }\n\n    uint256 public token0Balance;\n    uint256 public token1Balance;\n\n    address vaultAddress;\n\n    bool private initialDepositDone = false;\n\n    IERC20 public token0;\n    IERC20 public token1;\n\n    constructor(\n        address _token0,\n        address _token1,\n        address _protocolAddress\n    ) {\n        Router = msg.sender;\n        require(\n            _token0 != address(0) &&\n                _token1 != address(0) &&\n                _protocolAddress != address(0),\n            \"Zero address not allowed\"\n        );\n        token0 = IERC20(_token0);\n        token1 = IERC20(_token1);\n        vaultAddress = _protocolAddress;\n    }\n\n    function initialDeposit(\n        uint256 _token0Amount,\n        uint256 _token1Amount,\n        address from\n    )\n        external\n        override\n        calledByRouter\n        minValue(_token0Amount)\n        minValue(_token1Amount)\n    {\n        //Checks\n        require(!initialDepositDone, \"already done use deposit()\");\n        //Effects\n        mint(_token0Amount * _token1Amount, from);\n        initialDepositDone = true;\n        //Interactions\n        _rcvTokens(token0, _token0Amount);\n        _rcvTokens(token1, _token1Amount);\n    }\n\n    //---Deposit and withdraw\n    function deposit(\n        uint256 _token0Amount,\n        uint256 _token1Amount,\n        address from\n    )\n        external\n        override\n        calledByRouter\n        minValue(_token0Amount)\n        minValue(_token1Amount)\n    {\n        //Checks\n        require(\n            _token1Amount <= _scaleUp(_token0Amount + 1000) / rate() &&\n                _token1Amount >= _scaleUp(_token0Amount - 1000) / rate(),\n            \"Wrong amount of tokens sent\"\n        );\n        //Effects\n        mint((totalSupply() / token0Balance) * _token0Amount, from);\n        //Interactions\n        _rcvTokens(token1, _scaleUp(_token0Amount) / rate());\n        _rcvTokens(token0, _token0Amount);\n    }\n\n    function withdraw(address from, uint256 _withdrawalAmount)\n        external\n        override\n        calledByRouter\n        returns (uint256)\n    {\n        //Check\n        uint256 userTokenBalance = balanceOf(from);\n        require(userTokenBalance >= _withdrawalAmount, \"Balance too low\");\n        //Effects\n        uint256 partOfPool = totalSupply() / _scaleDown(_withdrawalAmount);\n        uint256 token0Withdrawal = _scaleUp(token0Balance) / partOfPool;\n        uint256 token1Withdrawal = _scaleUp(token1Balance) / partOfPool;\n\n        token0Balance -= token0Withdrawal;\n        token1Balance -= token1Withdrawal;\n\n\n        burn(_withdrawalAmount, from);\n\n        //Interactions\n        token0.safeTransfer(Router, token0Withdrawal);\n        token1.safeTransfer(from, token1Withdrawal);\n\n        return token0Withdrawal;\n    }\n\n    function closePool() external calledByRouter {\n        if (totalSupply() <= 0) {\n            selfdestruct(payable(vaultAddress));\n        }\n    }\n\n    //---Trade\n    function swapToken0ToToken1(\n        uint256 _token0Amount,\n        uint256 _token1AmountMin,\n        address from\n    )\n        external\n        override\n        calledByRouter\n        minValue(_token0Amount)\n        returns (uint256)\n    {\n        //Checks\n        uint256 token1Withdrawal = t1FromT0(_token0Amount);\n        uint256 protocolFee = _scaleDown(token1Withdrawal * _protocolFee);\n\n        require(token1Withdrawal >= _token1AmountMin, \"Price changed\");\n\n        //Effects\n        token1Balance -= token1Withdrawal + protocolFee;\n        token0Balance += _token0Amount;\n\n        //Interactions\n\n        //Protocol fee\n        token1.safeTransfer(vaultAddress, protocolFee);\n\n        token1.safeTransfer(from, token1Withdrawal);\n        return token1Withdrawal;\n    }\n\n    function swapToken1ToToken0(\n        uint256 _token1Amount,\n        uint256 _token0AmountMin,\n        address from\n    )\n        external\n        override\n        calledByRouter\n        minValue(_token1Amount)\n        returns (uint256)\n    {\n        //Checks\n        uint256 tokenWithdrawal = t0FromT1(_token1Amount);\n        uint256 protocolFee = _scaleDown(tokenWithdrawal * _protocolFee);\n\n        require(tokenWithdrawal >= _token0AmountMin, \"Price changed\");\n        ////Effects\n\n        token0Balance -= tokenWithdrawal + protocolFee;\n        token1Balance += _token1Amount;\n\n        ////Interactions\n        //Protocol Fee\n        token0.safeTransfer(vaultAddress, protocolFee);\n\n        token0.safeTransfer(from, tokenWithdrawal);\n        return tokenWithdrawal;\n    }\n\n    function t1FromT0(uint256 tokenAmount)\n        public\n        view\n        calledByRouter\n        returns (uint256)\n    {\n        return\n            _subtractFee(\n                (tokenAmount * token1Balance) / (token0Balance + tokenAmount)\n            );\n    }\n\n    function t0FromT1(uint256 tokenAmount)\n        public\n        view\n        calledByRouter\n        returns (uint256)\n    {\n        return\n            _subtractFee(\n                (tokenAmount * token0Balance) / (token1Balance + tokenAmount)\n            );\n    }\n\n    //---helper\n    function _rcvTokens(IERC20 token, uint256 amount) private {\n        //Checks\n        // require(token.balanceOf(from) >= amount, \"Your balance is too too low\");\n        require(_minAmount <= amount, \"Sent amount too low\");\n        //Effects\n        if (address(token) == address(token0)) {\n            token0Balance += amount;\n        } else if (address(token) == address(token1)) {\n            token1Balance += amount;\n        }\n    }\n\n    function rate() public view calledByRouter returns (uint256) {\n        return _scaleUp(token0Balance) / token1Balance;\n    }\n\n    function _subtractFee(uint256 value) private pure returns (uint256) {\n        return _scaleDown(value * _feeMultiplier);\n    }\n\n\n\n    function getBalances(address from)\n        public\n        view\n        calledByRouter\n        returns (uint256, uint256)\n    {\n        uint256 userTokenBalance = balanceOf(from);\n        uint256 partOfPool = totalSupply() / userTokenBalance;\n        uint256 token0Withdrawal = token0Balance / partOfPool;\n        uint256 token1Withdrawal = token1Balance / partOfPool;\n        return (token0Withdrawal, token1Withdrawal);\n    }\n\n}\n",
  "sourcePath": "/home/olio/Desktop/JPN-GITHUB/Jupyter-Swap/Contracts/contracts/V1/Core/JupyterCoreV1.sol",
  "compiler": {
    "name": "solc",
    "version": "0.8.7+commit.e28d00a7.Emscripten.clang"
  },
  "schemaVersion": "3.4.6",
  "updatedAt": "2022-06-04T15:44:36.155Z",
  "networkType": "ethereum",
  "devdoc": {
    "kind": "dev",
    "methods": {
      "allowance(address,address)": {
        "details": "See {IERC20-allowance}."
      },
      "approve(address,uint256)": {
        "details": "See {IERC20-approve}. NOTE: If `amount` is the maximum `uint256`, the allowance is not updated on `transferFrom`. This is semantically equivalent to an infinite approval. Requirements: - `spender` cannot be the zero address."
      },
      "balanceOf(address)": {
        "details": "See {IERC20-balanceOf}."
      },
      "decimals()": {
        "details": "Returns the number of decimals used to get its user representation. For example, if `decimals` equals `2`, a balance of `505` tokens should be displayed to a user as `5.05` (`505 / 10 ** 2`). Tokens usually opt for a value of 18, imitating the relationship between Ether and Wei. This is the value {ERC20} uses, unless this function is overridden; NOTE: This information is only used for _display_ purposes: it in no way affects any of the arithmetic of the contract, including {IERC20-balanceOf} and {IERC20-transfer}."
      },
      "decreaseAllowance(address,uint256)": {
        "details": "Atomically decreases the allowance granted to `spender` by the caller. This is an alternative to {approve} that can be used as a mitigation for problems described in {IERC20-approve}. Emits an {Approval} event indicating the updated allowance. Requirements: - `spender` cannot be the zero address. - `spender` must have allowance for the caller of at least `subtractedValue`."
      },
      "increaseAllowance(address,uint256)": {
        "details": "Atomically increases the allowance granted to `spender` by the caller. This is an alternative to {approve} that can be used as a mitigation for problems described in {IERC20-approve}. Emits an {Approval} event indicating the updated allowance. Requirements: - `spender` cannot be the zero address."
      },
      "name()": {
        "details": "Returns the name of the token."
      },
      "symbol()": {
        "details": "Returns the symbol of the token, usually a shorter version of the name."
      },
      "totalSupply()": {
        "details": "See {IERC20-totalSupply}."
      },
      "transfer(address,uint256)": {
        "details": "See {IERC20-transfer}. Requirements: - `to` cannot be the zero address. - the caller must have a balance of at least `amount`."
      },
      "transferFrom(address,address,uint256)": {
        "details": "See {IERC20-transferFrom}. Emits an {Approval} event indicating the updated allowance. This is not required by the EIP. See the note at the beginning of {ERC20}. NOTE: Does not update the allowance if the current allowance is the maximum `uint256`. Requirements: - `from` and `to` cannot be the zero address. - `from` must have a balance of at least `amount`. - the caller must have allowance for ``from``'s tokens of at least `amount`."
      }
    },
    "version": 1
  },
  "userdoc": {
    "kind": "user",
    "methods": {},
    "version": 1
  }
}